{
  "contractName": "DeThread",
  "abi": [
    {
      "inputs": [
        {
          "internalType": "uint256",
          "name": "",
          "type": "uint256"
        }
      ],
      "name": "comments",
      "outputs": [
        {
          "internalType": "uint256",
          "name": "id",
          "type": "uint256"
        },
        {
          "internalType": "string",
          "name": "url",
          "type": "string"
        },
        {
          "internalType": "string",
          "name": "comment",
          "type": "string"
        },
        {
          "internalType": "address",
          "name": "userAddress",
          "type": "address"
        },
        {
          "internalType": "string",
          "name": "username",
          "type": "string"
        },
        {
          "internalType": "int256",
          "name": "votes",
          "type": "int256"
        },
        {
          "internalType": "uint256",
          "name": "parentId",
          "type": "uint256"
        }
      ],
      "stateMutability": "view",
      "type": "function",
      "constant": true
    },
    {
      "inputs": [
        {
          "internalType": "uint256",
          "name": "",
          "type": "uint256"
        }
      ],
      "name": "commentsMetadata",
      "outputs": [
        {
          "internalType": "uint256",
          "name": "id",
          "type": "uint256"
        },
        {
          "internalType": "string",
          "name": "url",
          "type": "string"
        }
      ],
      "stateMutability": "view",
      "type": "function",
      "constant": true
    },
    {
      "inputs": [
        {
          "internalType": "address",
          "name": "",
          "type": "address"
        }
      ],
      "name": "userAccounts",
      "outputs": [
        {
          "internalType": "string",
          "name": "",
          "type": "string"
        }
      ],
      "stateMutability": "view",
      "type": "function",
      "constant": true
    },
    {
      "inputs": [
        {
          "internalType": "string",
          "name": "",
          "type": "string"
        }
      ],
      "name": "usernameToAddress",
      "outputs": [
        {
          "internalType": "address",
          "name": "",
          "type": "address"
        }
      ],
      "stateMutability": "view",
      "type": "function",
      "constant": true
    },
    {
      "inputs": [
        {
          "internalType": "address",
          "name": "_walletAddress",
          "type": "address"
        },
        {
          "internalType": "string",
          "name": "_username",
          "type": "string"
        }
      ],
      "name": "createAccount",
      "outputs": [],
      "stateMutability": "nonpayable",
      "type": "function"
    },
    {
      "inputs": [
        {
          "internalType": "string",
          "name": "_url",
          "type": "string"
        },
        {
          "internalType": "string",
          "name": "_comment",
          "type": "string"
        }
      ],
      "name": "insertComment",
      "outputs": [],
      "stateMutability": "nonpayable",
      "type": "function"
    },
    {
      "inputs": [
        {
          "internalType": "uint256",
          "name": "_parentCommentId",
          "type": "uint256"
        },
        {
          "internalType": "string",
          "name": "_url",
          "type": "string"
        },
        {
          "internalType": "string",
          "name": "_comment",
          "type": "string"
        }
      ],
      "name": "addReply",
      "outputs": [],
      "stateMutability": "nonpayable",
      "type": "function"
    },
    {
      "inputs": [],
      "name": "readUsers",
      "outputs": [
        {
          "internalType": "string[]",
          "name": "",
          "type": "string[]"
        },
        {
          "internalType": "address[]",
          "name": "",
          "type": "address[]"
        }
      ],
      "stateMutability": "view",
      "type": "function",
      "constant": true
    },
    {
      "inputs": [
        {
          "internalType": "string",
          "name": "_url",
          "type": "string"
        }
      ],
      "name": "readComments",
      "outputs": [
        {
          "components": [
            {
              "internalType": "uint256",
              "name": "id",
              "type": "uint256"
            },
            {
              "internalType": "string",
              "name": "url",
              "type": "string"
            },
            {
              "internalType": "string",
              "name": "comment",
              "type": "string"
            },
            {
              "internalType": "address",
              "name": "userAddress",
              "type": "address"
            },
            {
              "internalType": "string",
              "name": "username",
              "type": "string"
            },
            {
              "internalType": "int256",
              "name": "votes",
              "type": "int256"
            },
            {
              "internalType": "address[]",
              "name": "upvoters",
              "type": "address[]"
            },
            {
              "internalType": "address[]",
              "name": "downvoters",
              "type": "address[]"
            },
            {
              "internalType": "uint256",
              "name": "parentId",
              "type": "uint256"
            }
          ],
          "internalType": "struct DeThread.Comment[]",
          "name": "",
          "type": "tuple[]"
        }
      ],
      "stateMutability": "view",
      "type": "function",
      "constant": true
    },
    {
      "inputs": [
        {
          "internalType": "uint256",
          "name": "_commentId",
          "type": "uint256"
        }
      ],
      "name": "upvote",
      "outputs": [],
      "stateMutability": "nonpayable",
      "type": "function"
    },
    {
      "inputs": [
        {
          "internalType": "uint256",
          "name": "_commentId",
          "type": "uint256"
        }
      ],
      "name": "downvote",
      "outputs": [],
      "stateMutability": "nonpayable",
      "type": "function"
    },
    {
      "inputs": [
        {
          "internalType": "uint256",
          "name": "_commentId",
          "type": "uint256"
        }
      ],
      "name": "getCommentVotes",
      "outputs": [
        {
          "internalType": "int256",
          "name": "",
          "type": "int256"
        }
      ],
      "stateMutability": "view",
      "type": "function",
      "constant": true
    },
    {
      "inputs": [
        {
          "internalType": "string",
          "name": "_username",
          "type": "string"
        }
      ],
      "name": "showUserInfo",
      "outputs": [
        {
          "internalType": "address",
          "name": "",
          "type": "address"
        },
        {
          "internalType": "int256",
          "name": "",
          "type": "int256"
        },
        {
          "internalType": "uint256[]",
          "name": "",
          "type": "uint256[]"
        }
      ],
      "stateMutability": "view",
      "type": "function",
      "constant": true
    }
  ],
  "bytecode": "0x608060405234801561001057600080fd5b5061368a806100206000396000f3fe608060405234801561001057600080fd5b50600436106100cf5760003560e01c806366e281ba1161008c5780638ebb4c15116100665780638ebb4c1514610224578063f31fdad41461025a578063f825f14314610276578063fbde45f0146102a6576100cf565b806366e281ba146101a757806375119f28146101d75780638368fc2614610208576100cf565b806301ddf070146100d45780631831b7bc146100f05780632659f3941461010c57806334f0e63914610128578063469ce0d0146101475780635251d91c14610177575b600080fd5b6100ee60048036038101906100e99190612755565b6102d8565b005b61010a6004803603810190610105919061277e565b610525565b005b61012660048036038101906101219190612654565b610922565b005b610130610a83565b60405161013e929190612efd565b60405180910390f35b610161600480360381019061015c91906126a8565b610d9e565b60405161016e9190612f34565b60405180910390f35b610191600480360381019061018c919061262b565b6114cd565b60405161019e9190612f71565b60405180910390f35b6101c160048036038101906101bc9190612755565b61156d565b6040516101ce9190612f56565b60405180910390f35b6101f160048036038101906101ec9190612755565b6115d6565b6040516101ff929190613073565b60405180910390f35b610222600480360381019061021d91906126e9565b611692565b005b61023e60048036038101906102399190612755565b611a37565b60405161025197969594939291906130a3565b60405180910390f35b610274600480360381019061026f9190612755565b611c41565b005b610290600480360381019061028b91906126a8565b611e8e565b60405161029d9190612ea4565b60405180910390f35b6102c060048036038101906102bb91906126a8565b611ed7565b6040516102cf93929190612ebf565b60405180910390f35b6000811180156102ed57506002805490508111155b61032c576040517f08c379a000000000000000000000000000000000000000000000000000000000815260040161032390612fd3565b60405180910390fd5b60008060003373ffffffffffffffffffffffffffffffffffffffff1673ffffffffffffffffffffffffffffffffffffffff1681526020019081526020016000208054610377906134c4565b9050116103b9576040517f08c379a00000000000000000000000000000000000000000000000000000000081526004016103b090613053565b60405180910390fd5b6104536103c5826122ff565b60060180548060200260200160405190810160405280929190818152602001828054801561044857602002820191906000526020600020905b8160009054906101000a900473ffffffffffffffffffffffffffffffffffffffff1673ffffffffffffffffffffffffffffffffffffffff16815260200190600101908083116103fe575b50505050503361235c565b15610493576040517f08c379a000000000000000000000000000000000000000000000000000000000815260040161048a90613013565b60405180910390fd5b61049c816122ff565b600601339080600181540180825580915050600190039060005260206000200160009091909190916101000a81548173ffffffffffffffffffffffffffffffffffffffff021916908373ffffffffffffffffffffffffffffffffffffffff160217905550610509816122ff565b600501600081548092919061051d906134f6565b919050555050565b60008311801561053a57506002805490508311155b610579576040517f08c379a000000000000000000000000000000000000000000000000000000000815260040161057090612fb3565b60405180910390fd5b60008390506002604051806101200160405280600160028054905061059e9190613369565b81526020018581526020018481526020013373ffffffffffffffffffffffffffffffffffffffff1681526020016000803373ffffffffffffffffffffffffffffffffffffffff1673ffffffffffffffffffffffffffffffffffffffff1681526020019081526020016000208054610614906134c4565b80601f0160208091040260200160405190810160405280929190818152602001828054610640906134c4565b801561068d5780601f106106625761010080835404028352916020019161068d565b820191906000526020600020905b81548152906001019060200180831161067057829003601f168201915b5050505050815260200160008152602001600067ffffffffffffffff8111156106df577f4e487b7100000000000000000000000000000000000000000000000000000000600052604160045260246000fd5b60405190808252806020026020018201604052801561070d5781602001602082028036833780820191505090505b508152602001600067ffffffffffffffff811115610754577f4e487b7100000000000000000000000000000000000000000000000000000000600052604160045260246000fd5b6040519080825280602002602001820160405280156107825781602001602082028036833780820191505090505b5081526020018381525090806001815401808255809150506001900390600052602060002090600902016000909190919091506000820151816000015560208201518160010190805190602001906107db92919061240a565b5060408201518160020190805190602001906107f892919061240a565b5060608201518160030160006101000a81548173ffffffffffffffffffffffffffffffffffffffff021916908373ffffffffffffffffffffffffffffffffffffffff160217905550608082015181600401908051906020019061085c92919061240a565b5060a0820151816005015560c0820151816006019080519060200190610883929190612490565b5060e08201518160070190805190602001906108a0929190612490565b506101008201518160080155505060036040518060400160405280600280549050815260200185815250908060018154018082558091505060019003906000526020600020906002020160009091909190915060008201518160000155602082015181600101908051906020019061091992919061240a565b50505050505050565b600073ffffffffffffffffffffffffffffffffffffffff1660018260405161094a9190612e8d565b908152602001604051809103902060009054906101000a900473ffffffffffffffffffffffffffffffffffffffff1673ffffffffffffffffffffffffffffffffffffffff16146109cf576040517f08c379a00000000000000000000000000000000000000000000000000000000081526004016109c690612ff3565b60405180910390fd5b806000808473ffffffffffffffffffffffffffffffffffffffff1673ffffffffffffffffffffffffffffffffffffffff1681526020019081526020016000209080519060200190610a2192919061240a565b5081600182604051610a339190612e8d565b908152602001604051809103902060006101000a81548173ffffffffffffffffffffffffffffffffffffffff021916908373ffffffffffffffffffffffffffffffffffffffff1602179055505050565b6060806000600280549050905060008167ffffffffffffffff811115610ad2577f4e487b7100000000000000000000000000000000000000000000000000000000600052604160045260246000fd5b604051908082528060200260200182016040528015610b0557816020015b6060815260200190600190039081610af05790505b50905060008267ffffffffffffffff811115610b4a577f4e487b7100000000000000000000000000000000000000000000000000000000600052604160045260246000fd5b604051908082528060200260200182016040528015610b785781602001602082028036833780820191505090505b50905060005b83811015610d905760028181548110610bc0577f4e487b7100000000000000000000000000000000000000000000000000000000600052603260045260246000fd5b90600052602060002090600902016004018054610bdc906134c4565b80601f0160208091040260200160405190810160405280929190818152602001828054610c08906134c4565b8015610c555780601f10610c2a57610100808354040283529160200191610c55565b820191906000526020600020905b815481529060010190602001808311610c3857829003601f168201915b5050505050838281518110610c93577f4e487b7100000000000000000000000000000000000000000000000000000000600052603260045260246000fd5b602002602001018190525060028181548110610cd8577f4e487b7100000000000000000000000000000000000000000000000000000000600052603260045260246000fd5b906000526020600020906009020160030160009054906101000a900473ffffffffffffffffffffffffffffffffffffffff16828281518110610d43577f4e487b7100000000000000000000000000000000000000000000000000000000600052603260045260246000fd5b602002602001019073ffffffffffffffffffffffffffffffffffffffff16908173ffffffffffffffffffffffffffffffffffffffff16815250508080610d889061353f565b915050610b7e565b508181945094505050509091565b60606000600280549050905060008167ffffffffffffffff811115610dec577f4e487b7100000000000000000000000000000000000000000000000000000000600052604160045260246000fd5b604051908082528060200260200182016040528015610e2557816020015b610e1261251a565b815260200190600190039081610e0a5790505b5090506000805b838110156114c157858051906020012060028281548110610e76577f4e487b7100000000000000000000000000000000000000000000000000000000600052603260045260246000fd5b9060005260206000209060090201600101604051610e949190612e76565b604051809103902014156114ae5760405180610120016040528060028381548110610ee8577f4e487b7100000000000000000000000000000000000000000000000000000000600052603260045260246000fd5b906000526020600020906009020160000154815260200160028381548110610f39577f4e487b7100000000000000000000000000000000000000000000000000000000600052603260045260246000fd5b90600052602060002090600902016001018054610f55906134c4565b80601f0160208091040260200160405190810160405280929190818152602001828054610f81906134c4565b8015610fce5780601f10610fa357610100808354040283529160200191610fce565b820191906000526020600020905b815481529060010190602001808311610fb157829003601f168201915b5050505050815260200160028381548110611012577f4e487b7100000000000000000000000000000000000000000000000000000000600052603260045260246000fd5b9060005260206000209060090201600201805461102e906134c4565b80601f016020809104026020016040519081016040528092919081815260200182805461105a906134c4565b80156110a75780601f1061107c576101008083540402835291602001916110a7565b820191906000526020600020905b81548152906001019060200180831161108a57829003601f168201915b50505050508152602001600283815481106110eb577f4e487b7100000000000000000000000000000000000000000000000000000000600052603260045260246000fd5b906000526020600020906009020160030160009054906101000a900473ffffffffffffffffffffffffffffffffffffffff1673ffffffffffffffffffffffffffffffffffffffff16815260200160028381548110611172577f4e487b7100000000000000000000000000000000000000000000000000000000600052603260045260246000fd5b9060005260206000209060090201600401805461118e906134c4565b80601f01602080910402602001604051908101604052809291908181526020018280546111ba906134c4565b80156112075780601f106111dc57610100808354040283529160200191611207565b820191906000526020600020905b8154815290600101906020018083116111ea57829003601f168201915b505050505081526020016002838154811061124b577f4e487b7100000000000000000000000000000000000000000000000000000000600052603260045260246000fd5b90600052602060002090600902016005015481526020016002838154811061129c577f4e487b7100000000000000000000000000000000000000000000000000000000600052603260045260246000fd5b906000526020600020906009020160060180548060200260200160405190810160405280929190818152602001828054801561132d57602002820191906000526020600020905b8160009054906101000a900473ffffffffffffffffffffffffffffffffffffffff1673ffffffffffffffffffffffffffffffffffffffff16815260200190600101908083116112e3575b5050505050815260200160028381548110611371577f4e487b7100000000000000000000000000000000000000000000000000000000600052603260045260246000fd5b906000526020600020906009020160070180548060200260200160405190810160405280929190818152602001828054801561140257602002820191906000526020600020905b8160009054906101000a900473ffffffffffffffffffffffffffffffffffffffff1673ffffffffffffffffffffffffffffffffffffffff16815260200190600101908083116113b8575b5050505050815260200160028381548110611446577f4e487b7100000000000000000000000000000000000000000000000000000000600052603260045260246000fd5b906000526020600020906009020160080154815250838381518110611494577f4e487b7100000000000000000000000000000000000000000000000000000000600052603260045260246000fd5b602002602001018190525081806114aa9061353f565b9250505b80806114b99061353f565b915050610e2c565b50819350505050919050565b600060205280600052604060002060009150905080546114ec906134c4565b80601f0160208091040260200160405190810160405280929190818152602001828054611518906134c4565b80156115655780601f1061153a57610100808354040283529160200191611565565b820191906000526020600020905b81548152906001019060200180831161154857829003601f168201915b505050505081565b6000808211801561158357506002805490508211155b6115c2576040517f08c379a00000000000000000000000000000000000000000000000000000000081526004016115b990612fd3565b60405180910390fd5b6115cb826122ff565b600501549050919050565b600381815481106115e657600080fd5b906000526020600020906002020160009150905080600001549080600101805461160f906134c4565b80601f016020809104026020016040519081016040528092919081815260200182805461163b906134c4565b80156116885780601f1061165d57610100808354040283529160200191611688565b820191906000526020600020905b81548152906001019060200180831161166b57829003601f168201915b5050505050905082565b6000600260405180610120016040528060016002805490506116b49190613369565b81526020018581526020018481526020013373ffffffffffffffffffffffffffffffffffffffff1681526020016000803373ffffffffffffffffffffffffffffffffffffffff1673ffffffffffffffffffffffffffffffffffffffff168152602001908152602001600020805461172a906134c4565b80601f0160208091040260200160405190810160405280929190818152602001828054611756906134c4565b80156117a35780601f10611778576101008083540402835291602001916117a3565b820191906000526020600020905b81548152906001019060200180831161178657829003601f168201915b5050505050815260200160008152602001600067ffffffffffffffff8111156117f5577f4e487b7100000000000000000000000000000000000000000000000000000000600052604160045260246000fd5b6040519080825280602002602001820160405280156118235781602001602082028036833780820191505090505b508152602001600067ffffffffffffffff81111561186a577f4e487b7100000000000000000000000000000000000000000000000000000000600052604160045260246000fd5b6040519080825280602002602001820160405280156118985781602001602082028036833780820191505090505b5081526020018381525090806001815401808255809150506001900390600052602060002090600902016000909190919091506000820151816000015560208201518160010190805190602001906118f192919061240a565b50604082015181600201908051906020019061190e92919061240a565b5060608201518160030160006101000a81548173ffffffffffffffffffffffffffffffffffffffff021916908373ffffffffffffffffffffffffffffffffffffffff160217905550608082015181600401908051906020019061197292919061240a565b5060a0820151816005015560c0820151816006019080519060200190611999929190612490565b5060e08201518160070190805190602001906119b6929190612490565b5061010082015181600801555050600360405180604001604052806002805490508152602001858152509080600181540180825580915050600190039060005260206000209060020201600090919091909150600082015181600001556020820151816001019080519060200190611a2f92919061240a565b505050505050565b60028181548110611a4757600080fd5b9060005260206000209060090201600091509050806000015490806001018054611a70906134c4565b80601f0160208091040260200160405190810160405280929190818152602001828054611a9c906134c4565b8015611ae95780601f10611abe57610100808354040283529160200191611ae9565b820191906000526020600020905b815481529060010190602001808311611acc57829003601f168201915b505050505090806002018054611afe906134c4565b80601f0160208091040260200160405190810160405280929190818152602001828054611b2a906134c4565b8015611b775780601f10611b4c57610100808354040283529160200191611b77565b820191906000526020600020905b815481529060010190602001808311611b5a57829003601f168201915b5050505050908060030160009054906101000a900473ffffffffffffffffffffffffffffffffffffffff1690806004018054611bb2906134c4565b80601f0160208091040260200160405190810160405280929190818152602001828054611bde906134c4565b8015611c2b5780601f10611c0057610100808354040283529160200191611c2b565b820191906000526020600020905b815481529060010190602001808311611c0e57829003601f168201915b5050505050908060050154908060080154905087565b600081118015611c5657506002805490508111155b611c95576040517f08c379a0000000000000000000000000000000000000000000000000000000008152600401611c8c90612fd3565b60405180910390fd5b60008060003373ffffffffffffffffffffffffffffffffffffffff1673ffffffffffffffffffffffffffffffffffffffff1681526020019081526020016000208054611ce0906134c4565b905011611d22576040517f08c379a0000000000000000000000000000000000000000000000000000000008152600401611d1990613053565b60405180910390fd5b611dbc611d2e826122ff565b600701805480602002602001604051908101604052809291908181526020018280548015611db157602002820191906000526020600020905b8160009054906101000a900473ffffffffffffffffffffffffffffffffffffffff1673ffffffffffffffffffffffffffffffffffffffff1681526020019060010190808311611d67575b50505050503361235c565b15611dfc576040517f08c379a0000000000000000000000000000000000000000000000000000000008152600401611df390612f93565b60405180910390fd5b611e05816122ff565b600701339080600181540180825580915050600190039060005260206000200160009091909190916101000a81548173ffffffffffffffffffffffffffffffffffffffff021916908373ffffffffffffffffffffffffffffffffffffffff160217905550611e72816122ff565b6005016000815480929190611e869061347b565b919050555050565b6001818051602081018201805184825260208301602085012081835280955050505050506000915054906101000a900473ffffffffffffffffffffffffffffffffffffffff1681565b6000806060600073ffffffffffffffffffffffffffffffffffffffff16600185604051611f049190612e8d565b908152602001604051809103902060009054906101000a900473ffffffffffffffffffffffffffffffffffffffff1673ffffffffffffffffffffffffffffffffffffffff161415611f8a576040517f08c379a0000000000000000000000000000000000000000000000000000000008152600401611f8190613033565b60405180910390fd5b6000600185604051611f9c9190612e8d565b908152602001604051809103902060009054906101000a900473ffffffffffffffffffffffffffffffffffffffff16905060008060028054905067ffffffffffffffff811115612015577f4e487b7100000000000000000000000000000000000000000000000000000000600052604160045260246000fd5b6040519080825280602002602001820160405280156120435781602001602082028036833780820191505090505b5090506000805b6002805490508110156121d157888051906020012060028281548110612099577f4e487b7100000000000000000000000000000000000000000000000000000000600052603260045260246000fd5b90600052602060002090600902016004016040516120b79190612e76565b604051809103902014156121be57600281815481106120ff577f4e487b7100000000000000000000000000000000000000000000000000000000600052603260045260246000fd5b9060005260206000209060090201600501548461211c91906132d5565b935060028181548110612158577f4e487b7100000000000000000000000000000000000000000000000000000000600052603260045260246000fd5b9060005260206000209060090201600001548383815181106121a3577f4e487b7100000000000000000000000000000000000000000000000000000000600052603260045260246000fd5b60200260200101818152505081806121ba9061353f565b9250505b80806121c99061353f565b91505061204a565b5060008167ffffffffffffffff811115612214577f4e487b7100000000000000000000000000000000000000000000000000000000600052604160045260246000fd5b6040519080825280602002602001820160405280156122425781602001602082028036833780820191505090505b50905060005b828110156122e957838181518110612289577f4e487b7100000000000000000000000000000000000000000000000000000000600052603260045260246000fd5b60200260200101518282815181106122ca577f4e487b7100000000000000000000000000000000000000000000000000000000600052603260045260246000fd5b60200260200101818152505080806122e19061353f565b915050612248565b5084848297509750975050505050509193909250565b6000600260018361231091906133bf565b81548110612347577f4e487b7100000000000000000000000000000000000000000000000000000000600052603260045260246000fd5b90600052602060002090600902019050919050565b600080600090505b83518110156123fe578273ffffffffffffffffffffffffffffffffffffffff168482815181106123bd577f4e487b7100000000000000000000000000000000000000000000000000000000600052603260045260246000fd5b602002602001015173ffffffffffffffffffffffffffffffffffffffff1614156123eb576001915050612404565b80806123f69061353f565b915050612364565b50600090505b92915050565b828054612416906134c4565b90600052602060002090601f016020900481019282612438576000855561247f565b82601f1061245157805160ff191683800117855561247f565b8280016001018555821561247f579182015b8281111561247e578251825591602001919060010190612463565b5b50905061248c919061257c565b5090565b828054828255906000526020600020908101928215612509579160200282015b828111156125085782518260006101000a81548173ffffffffffffffffffffffffffffffffffffffff021916908373ffffffffffffffffffffffffffffffffffffffff160217905550916020019190600101906124b0565b5b509050612516919061257c565b5090565b604051806101200160405280600081526020016060815260200160608152602001600073ffffffffffffffffffffffffffffffffffffffff16815260200160608152602001600081526020016060815260200160608152602001600081525090565b5b8082111561259557600081600090555060010161257d565b5090565b60006125ac6125a784613158565b613127565b9050828152602081018484840111156125c457600080fd5b6125cf848285613439565b509392505050565b6000813590506125e681613626565b92915050565b600082601f8301126125fd57600080fd5b813561260d848260208601612599565b91505092915050565b6000813590506126258161363d565b92915050565b60006020828403121561263d57600080fd5b600061264b848285016125d7565b91505092915050565b6000806040838503121561266757600080fd5b6000612675858286016125d7565b925050602083013567ffffffffffffffff81111561269257600080fd5b61269e858286016125ec565b9150509250929050565b6000602082840312156126ba57600080fd5b600082013567ffffffffffffffff8111156126d457600080fd5b6126e0848285016125ec565b91505092915050565b600080604083850312156126fc57600080fd5b600083013567ffffffffffffffff81111561271657600080fd5b612722858286016125ec565b925050602083013567ffffffffffffffff81111561273f57600080fd5b61274b858286016125ec565b9150509250929050565b60006020828403121561276757600080fd5b600061277584828501612616565b91505092915050565b60008060006060848603121561279357600080fd5b60006127a186828701612616565b935050602084013567ffffffffffffffff8111156127be57600080fd5b6127ca868287016125ec565b925050604084013567ffffffffffffffff8111156127e757600080fd5b6127f3868287016125ec565b9150509250925092565b60006128098383612855565b60208301905092915050565b60006128218383612b14565b905092915050565b60006128358383612d77565b905092915050565b60006128498383612e58565b60208301905092915050565b61285e816133f3565b82525050565b61286d816133f3565b82525050565b600061287e826131dd565b6128888185613248565b935061289383613188565b8060005b838110156128c45781516128ab88826127fd565b97506128b683613214565b925050600181019050612897565b5085935050505092915050565b60006128dc826131dd565b6128e68185613259565b93506128f183613188565b8060005b8381101561292257815161290988826127fd565b975061291483613214565b9250506001810190506128f5565b5085935050505092915050565b600061293a826131e8565b612944818561326a565b93508360208202850161295685613198565b8060005b8581101561299257848403895281516129738582612815565b945061297e83613221565b925060208a0199505060018101905061295a565b50829750879550505050505092915050565b60006129af826131f3565b6129b9818561327b565b9350836020820285016129cb856131a8565b8060005b85811015612a0757848403895281516129e88582612829565b94506129f38361322e565b925060208a019950506001810190506129cf565b50829750879550505050505092915050565b6000612a24826131fe565b612a2e818561328c565b9350612a39836131b8565b8060005b83811015612a6a578151612a51888261283d565b9750612a5c8361323b565b925050600181019050612a3d565b5085935050505092915050565b60008154612a84816134c4565b612a8e818661329d565b94506001821660008114612aa95760018114612aba57612aed565b60ff19831686528186019350612aed565b612ac3856131c8565b60005b83811015612ae557815481890152600182019150602081019050612ac6565b838801955050505b50505092915050565b612aff81613405565b82525050565b612b0e81613405565b82525050565b6000612b1f82613209565b612b2981856132a8565b9350612b39818560208601613448565b612b4281613615565b840191505092915050565b6000612b5882613209565b612b6281856132b9565b9350612b72818560208601613448565b612b7b81613615565b840191505092915050565b6000612b9182613209565b612b9b81856132ca565b9350612bab818560208601613448565b80840191505092915050565b6000612bc46011836132b9565b91507f416c726561647920646f776e766f7465640000000000000000000000000000006000830152602082019050919050565b6000612c046019836132b9565b91507f496e76616c696420706172656e7420636f6d6d656e74204944000000000000006000830152602082019050919050565b6000612c446012836132b9565b91507f496e76616c696420636f6d6d656e7420494400000000000000000000000000006000830152602082019050919050565b6000612c846017836132b9565b91507f557365726e616d6520616c7265616479206578697374730000000000000000006000830152602082019050919050565b6000612cc4600f836132b9565b91507f416c7265616479207570766f74656400000000000000000000000000000000006000830152602082019050919050565b6000612d046013836132b9565b91507f5573657220646f6573206e6f74206578697374000000000000000000000000006000830152602082019050919050565b6000612d446018836132b9565b91507f436f6d6d656e74657220646f6573206e6f7420657869737400000000000000006000830152602082019050919050565b600061012083016000830151612d906000860182612e58565b5060208301518482036020860152612da88282612b14565b91505060408301518482036040860152612dc28282612b14565b9150506060830151612dd76060860182612855565b5060808301518482036080860152612def8282612b14565b91505060a0830151612e0460a0860182612af6565b5060c083015184820360c0860152612e1c8282612873565b91505060e083015184820360e0860152612e368282612873565b915050610100830151612e4d610100860182612e58565b508091505092915050565b612e618161342f565b82525050565b612e708161342f565b82525050565b6000612e828284612a77565b915081905092915050565b6000612e998284612b86565b915081905092915050565b6000602082019050612eb96000830184612864565b92915050565b6000606082019050612ed46000830186612864565b612ee16020830185612b05565b8181036040830152612ef38184612a19565b9050949350505050565b60006040820190508181036000830152612f17818561292f565b90508181036020830152612f2b81846128d1565b90509392505050565b60006020820190508181036000830152612f4e81846129a4565b905092915050565b6000602082019050612f6b6000830184612b05565b92915050565b60006020820190508181036000830152612f8b8184612b4d565b905092915050565b60006020820190508181036000830152612fac81612bb7565b9050919050565b60006020820190508181036000830152612fcc81612bf7565b9050919050565b60006020820190508181036000830152612fec81612c37565b9050919050565b6000602082019050818103600083015261300c81612c77565b9050919050565b6000602082019050818103600083015261302c81612cb7565b9050919050565b6000602082019050818103600083015261304c81612cf7565b9050919050565b6000602082019050818103600083015261306c81612d37565b9050919050565b60006040820190506130886000830185612e67565b818103602083015261309a8184612b4d565b90509392505050565b600060e0820190506130b8600083018a612e67565b81810360208301526130ca8189612b4d565b905081810360408301526130de8188612b4d565b90506130ed6060830187612864565b81810360808301526130ff8186612b4d565b905061310e60a0830185612b05565b61311b60c0830184612e67565b98975050505050505050565b6000604051905081810181811067ffffffffffffffff8211171561314e5761314d6135e6565b5b8060405250919050565b600067ffffffffffffffff821115613173576131726135e6565b5b601f19601f8301169050602081019050919050565b6000819050602082019050919050565b6000819050602082019050919050565b6000819050602082019050919050565b6000819050602082019050919050565b60008190508160005260206000209050919050565b600081519050919050565b600081519050919050565b600081519050919050565b600081519050919050565b600081519050919050565b6000602082019050919050565b6000602082019050919050565b6000602082019050919050565b6000602082019050919050565b600082825260208201905092915050565b600082825260208201905092915050565b600082825260208201905092915050565b600082825260208201905092915050565b600082825260208201905092915050565b600081905092915050565b600082825260208201905092915050565b600082825260208201905092915050565b600081905092915050565b60006132e082613405565b91506132eb83613405565b9250817f7fffffffffffffffffffffffffffffffffffffffffffffffffffffffffffffff0383136000831215161561332657613325613588565b5b817f800000000000000000000000000000000000000000000000000000000000000003831260008312161561335e5761335d613588565b5b828201905092915050565b60006133748261342f565b915061337f8361342f565b9250827fffffffffffffffffffffffffffffffffffffffffffffffffffffffffffffffff038211156133b4576133b3613588565b5b828201905092915050565b60006133ca8261342f565b91506133d58361342f565b9250828210156133e8576133e7613588565b5b828203905092915050565b60006133fe8261340f565b9050919050565b6000819050919050565b600073ffffffffffffffffffffffffffffffffffffffff82169050919050565b6000819050919050565b82818337600083830152505050565b60005b8381101561346657808201518184015260208101905061344b565b83811115613475576000848401525b50505050565b600061348682613405565b91507f80000000000000000000000000000000000000000000000000000000000000008214156134b9576134b8613588565b5b600182039050919050565b600060028204905060018216806134dc57607f821691505b602082108114156134f0576134ef6135b7565b5b50919050565b600061350182613405565b91507f7fffffffffffffffffffffffffffffffffffffffffffffffffffffffffffffff82141561353457613533613588565b5b600182019050919050565b600061354a8261342f565b91507fffffffffffffffffffffffffffffffffffffffffffffffffffffffffffffffff82141561357d5761357c613588565b5b600182019050919050565b7f4e487b7100000000000000000000000000000000000000000000000000000000600052601160045260246000fd5b7f4e487b7100000000000000000000000000000000000000000000000000000000600052602260045260246000fd5b7f4e487b7100000000000000000000000000000000000000000000000000000000600052604160045260246000fd5b6000601f19601f8301169050919050565b61362f816133f3565b811461363a57600080fd5b50565b6136468161342f565b811461365157600080fd5b5056fea26469706673582212208258eb4253e9eccb5d8265126e055e47079dbfcd93f86ee284eafd970a38116c64736f6c63430008000033",
  "immutableReferences": {},
  "source": "// SPDX-License-Identifier: UNLICENSED\npragma solidity ^0.8.0;\n\ncontract DeThread {\n    struct Comment {\n        uint256 id;\n        string url;\n        string comment;\n        address userAddress;\n        string username;\n        int votes;\n        address[] upvoters;\n        address[] downvoters;\n        uint256 parentId;\n    }\n\n    struct CommentMetadata {\n        uint256 id;\n        string url;\n    }\n\n    mapping(address => string) public userAccounts;\n    mapping(string => address) public usernameToAddress;\n    Comment[] public comments;\n    CommentMetadata[] public commentsMetadata;\n\n    function createAccount(address _walletAddress, string memory _username) public {\n        require(usernameToAddress[_username] == address(0), \"Username already exists\");\n        userAccounts[_walletAddress] = _username;\n        usernameToAddress[_username] = _walletAddress;\n    }\n\n    function insertComment(string memory _url, string memory _comment) public {\n        uint256 parentId = 0;\n        comments.push(Comment(comments.length + 1, _url, _comment, msg.sender, userAccounts[msg.sender], 0, new address[](0), new address[](0), parentId));\n        commentsMetadata.push(CommentMetadata(comments.length, _url));\n    }\n\n    function addReply(uint256 _parentCommentId, string memory _url, string memory _comment) public {\n        require(_parentCommentId > 0 && _parentCommentId <= comments.length, \"Invalid parent comment ID\");\n\n        uint256 parentId = _parentCommentId;\n        comments.push(Comment(comments.length + 1, _url, _comment, msg.sender, userAccounts[msg.sender], 0, new address[](0), new address[](0), parentId));\n        commentsMetadata.push(CommentMetadata(comments.length, _url));\n    }\n\n    function readUsers() public view returns (string[] memory, address[] memory) {\n        uint256 length = comments.length;\n        string[] memory usernames = new string[](length);\n        address[] memory walletAddresses = new address[](length);\n\n        for (uint256 i = 0; i < length; i++) {\n            usernames[i] = comments[i].username;\n            walletAddresses[i] = comments[i].userAddress;\n        }\n\n        return (usernames, walletAddresses);\n    }\n\n    function readComments(string memory _url) public view returns (Comment[] memory) {\n        uint256 length = comments.length;\n\n        Comment[] memory result = new Comment[](length);\n        uint256 commentCount = 0;\n\n        for (uint256 i = 0; i < length; i++) {\n            if (keccak256(bytes(comments[i].url)) == keccak256(bytes(_url))) {\n                result[commentCount] = Comment({\n                    id: comments[i].id,\n                    url: comments[i].url,\n                    comment: comments[i].comment,\n                    userAddress: comments[i].userAddress,\n                    username: comments[i].username,\n                    votes: comments[i].votes,\n                    upvoters: comments[i].upvoters,\n                    downvoters: comments[i].downvoters,\n                    parentId: comments[i].parentId\n                });\n                commentCount++;\n            }\n        }\n\n        // Comment[] memory trimmedResult = new Comment[](commentCount);\n        // \n        // for (uint256 i = 0; i < commentCount; i++) {\n        //     trimmedResult[i] = result[i];\n        // }\n\n        return result;\n    }\n\n\n    function upvote(uint256 _commentId) public {\n        require(_commentId > 0 && _commentId <= comments.length, \"Invalid comment ID\");\n        require(bytes(userAccounts[msg.sender]).length > 0, \"Commenter does not exist\");\n        require(!isUserInArray(getComment(_commentId).upvoters, msg.sender), \"Already upvoted\");\n\n        getComment(_commentId).upvoters.push(msg.sender);\n        getComment(_commentId).votes++;\n    }\n\n    function downvote(uint256 _commentId) public {\n        require(_commentId > 0 && _commentId <= comments.length, \"Invalid comment ID\");\n        require(bytes(userAccounts[msg.sender]).length > 0, \"Commenter does not exist\");\n        require(!isUserInArray(getComment(_commentId).downvoters, msg.sender), \"Already downvoted\");\n\n        getComment(_commentId).downvoters.push(msg.sender);\n        getComment(_commentId).votes--;\n    }\n\n    function getCommentVotes(uint256 _commentId) public view returns (int) {\n        require(_commentId > 0 && _commentId <= comments.length, \"Invalid comment ID\");\n        return getComment(_commentId).votes;\n    }\n\n    function getComment(uint256 _commentId) internal view returns (Comment storage) {\n        return comments[_commentId - 1];\n    }\n\n    function showUserInfo(string memory _username) public view returns (address, int, uint256[] memory) {\n        require(usernameToAddress[_username] != address(0), \"User does not exist\");\n\n        address userAddress = usernameToAddress[_username];\n        int userVotes = 0;\n        uint256[] memory userCommentIds = new uint256[](comments.length);\n        uint256 commentCount = 0;\n\n        for (uint256 i = 0; i < comments.length; i++) {\n            if (keccak256(bytes(comments[i].username)) == keccak256(bytes(_username))) {\n                userVotes += comments[i].votes;\n                userCommentIds[commentCount] = comments[i].id;\n                commentCount++;\n            }\n        }\n\n        // Trim the array to remove empty elements if any\n        uint256[] memory trimmedUserCommentIds = new uint256[](commentCount);\n        for (uint256 i = 0; i < commentCount; i++) {\n            trimmedUserCommentIds[i] = userCommentIds[i];\n        }\n\n        return (userAddress, userVotes, trimmedUserCommentIds);\n}\n\n    function isUserInArray(address[] memory _array, address _user) internal pure returns (bool) {\n        for (uint256 i = 0; i < _array.length; i++) {\n            if (_array[i] == _user) {\n                return true;\n            }\n        }\n        return false;\n    }\n}\n",
  "sourcePath": "D:\\xampp\\htdocs\\DeComment\\smart-contract\\contracts\\DeThread.sol",
  "compiler": {
    "name": "solc",
    "version": "0.8.0+commit.c7dfd78e.Emscripten.clang"
  },
  "schemaVersion": "3.4.9",
  "updatedAt": "2023-12-14T20:56:55.668Z",
  "networkType": "ethereum",
  "devdoc": {
    "kind": "dev",
    "methods": {},
    "version": 1
  },
  "userdoc": {
    "kind": "user",
    "methods": {},
    "version": 1
  }
}