{
  "contractName": "DeThread",
  "abi": [
    {
      "inputs": [
        {
          "internalType": "uint256",
          "name": "",
          "type": "uint256"
        }
      ],
      "name": "comments",
      "outputs": [
        {
          "internalType": "uint256",
          "name": "id",
          "type": "uint256"
        },
        {
          "internalType": "string",
          "name": "url",
          "type": "string"
        },
        {
          "internalType": "string",
          "name": "comment",
          "type": "string"
        },
        {
          "internalType": "address",
          "name": "userAddress",
          "type": "address"
        },
        {
          "internalType": "string",
          "name": "username",
          "type": "string"
        },
        {
          "internalType": "int256",
          "name": "votes",
          "type": "int256"
        },
        {
          "internalType": "uint256",
          "name": "parentId",
          "type": "uint256"
        }
      ],
      "stateMutability": "view",
      "type": "function",
      "constant": true
    },
    {
      "inputs": [
        {
          "internalType": "uint256",
          "name": "",
          "type": "uint256"
        }
      ],
      "name": "commentsMetadata",
      "outputs": [
        {
          "internalType": "uint256",
          "name": "id",
          "type": "uint256"
        },
        {
          "internalType": "string",
          "name": "url",
          "type": "string"
        }
      ],
      "stateMutability": "view",
      "type": "function",
      "constant": true
    },
    {
      "inputs": [
        {
          "internalType": "address",
          "name": "",
          "type": "address"
        }
      ],
      "name": "userAccounts",
      "outputs": [
        {
          "internalType": "string",
          "name": "",
          "type": "string"
        }
      ],
      "stateMutability": "view",
      "type": "function",
      "constant": true
    },
    {
      "inputs": [
        {
          "internalType": "string",
          "name": "",
          "type": "string"
        }
      ],
      "name": "usernameToAddress",
      "outputs": [
        {
          "internalType": "address",
          "name": "",
          "type": "address"
        }
      ],
      "stateMutability": "view",
      "type": "function",
      "constant": true
    },
    {
      "inputs": [
        {
          "internalType": "string",
          "name": "_username",
          "type": "string"
        }
      ],
      "name": "createAccount",
      "outputs": [
        {
          "internalType": "bool",
          "name": "",
          "type": "bool"
        }
      ],
      "stateMutability": "nonpayable",
      "type": "function"
    },
    {
      "inputs": [
        {
          "internalType": "string",
          "name": "_url",
          "type": "string"
        },
        {
          "internalType": "string",
          "name": "_comment",
          "type": "string"
        }
      ],
      "name": "insertComment",
      "outputs": [
        {
          "internalType": "bool",
          "name": "",
          "type": "bool"
        }
      ],
      "stateMutability": "nonpayable",
      "type": "function"
    },
    {
      "inputs": [
        {
          "internalType": "uint256",
          "name": "_parentCommentId",
          "type": "uint256"
        },
        {
          "internalType": "string",
          "name": "_url",
          "type": "string"
        },
        {
          "internalType": "string",
          "name": "_comment",
          "type": "string"
        }
      ],
      "name": "addReply",
      "outputs": [],
      "stateMutability": "nonpayable",
      "type": "function"
    },
    {
      "inputs": [
        {
          "internalType": "string",
          "name": "_url",
          "type": "string"
        }
      ],
      "name": "readComments",
      "outputs": [
        {
          "components": [
            {
              "internalType": "uint256",
              "name": "id",
              "type": "uint256"
            },
            {
              "internalType": "string",
              "name": "url",
              "type": "string"
            },
            {
              "internalType": "string",
              "name": "comment",
              "type": "string"
            },
            {
              "internalType": "address",
              "name": "userAddress",
              "type": "address"
            },
            {
              "internalType": "string",
              "name": "username",
              "type": "string"
            },
            {
              "internalType": "int256",
              "name": "votes",
              "type": "int256"
            },
            {
              "internalType": "address[]",
              "name": "upvoters",
              "type": "address[]"
            },
            {
              "internalType": "address[]",
              "name": "downvoters",
              "type": "address[]"
            },
            {
              "internalType": "uint256",
              "name": "parentId",
              "type": "uint256"
            }
          ],
          "internalType": "struct DeThread.Comment[]",
          "name": "",
          "type": "tuple[]"
        }
      ],
      "stateMutability": "view",
      "type": "function",
      "constant": true
    },
    {
      "inputs": [
        {
          "internalType": "uint256",
          "name": "_commentId",
          "type": "uint256"
        }
      ],
      "name": "upvote",
      "outputs": [],
      "stateMutability": "nonpayable",
      "type": "function"
    },
    {
      "inputs": [
        {
          "internalType": "uint256",
          "name": "_commentId",
          "type": "uint256"
        }
      ],
      "name": "downvote",
      "outputs": [],
      "stateMutability": "nonpayable",
      "type": "function"
    },
    {
      "inputs": [
        {
          "internalType": "uint256",
          "name": "_commentId",
          "type": "uint256"
        }
      ],
      "name": "getCommentVotes",
      "outputs": [
        {
          "internalType": "int256",
          "name": "",
          "type": "int256"
        }
      ],
      "stateMutability": "view",
      "type": "function",
      "constant": true
    },
    {
      "inputs": [
        {
          "internalType": "string",
          "name": "_username",
          "type": "string"
        }
      ],
      "name": "showUserInfo",
      "outputs": [
        {
          "internalType": "address",
          "name": "",
          "type": "address"
        },
        {
          "internalType": "int256",
          "name": "",
          "type": "int256"
        },
        {
          "internalType": "uint256[]",
          "name": "",
          "type": "uint256[]"
        }
      ],
      "stateMutability": "view",
      "type": "function",
      "constant": true
    }
  ],
  "bytecode": "0x608060405234801561001057600080fd5b506131ee806100206000396000f3fe608060405234801561001057600080fd5b50600436106100b45760003560e01c806375119f281161007157806375119f28146101b15780638368fc26146101e25780638ebb4c1514610212578063f31fdad414610248578063f825f14314610264578063fbde45f014610294576100b4565b806301ddf070146100b95780631831b7bc146100d5578063298daf5b146100f1578063469ce0d0146101215780635251d91c1461015157806366e281ba14610181575b600080fd5b6100d360048036038101906100ce91906123eb565b6102c6565b005b6100ef60048036038101906100ea9190612414565b610513565b005b61010b6004803603810190610106919061233e565b610910565b6040516101189190612add565b60405180910390f35b61013b6004803603810190610136919061233e565b610a7d565b6040516101489190612abb565b60405180910390f35b61016b60048036038101906101669190612315565b6111ac565b6040516101789190612b13565b60405180910390f35b61019b600480360381019061019691906123eb565b61124c565b6040516101a89190612af8565b60405180910390f35b6101cb60048036038101906101c691906123eb565b6112b5565b6040516101d9929190612c15565b60405180910390f35b6101fc60048036038101906101f7919061237f565b611371565b6040516102099190612add565b60405180910390f35b61022c600480360381019061022791906123eb565b611721565b60405161023f9796959493929190612c45565b60405180910390f35b610262600480360381019061025d91906123eb565b61192b565b005b61027e6004803603810190610279919061233e565b611b78565b60405161028b9190612a62565b60405180910390f35b6102ae60048036038101906102a9919061233e565b611bc1565b6040516102bd93929190612a7d565b60405180910390f35b6000811180156102db57506002805490508111155b61031a576040517f08c379a000000000000000000000000000000000000000000000000000000000815260040161031190612b75565b60405180910390fd5b60008060003373ffffffffffffffffffffffffffffffffffffffff1673ffffffffffffffffffffffffffffffffffffffff168152602001908152602001600020805461036590613028565b9050116103a7576040517f08c379a000000000000000000000000000000000000000000000000000000000815260040161039e90612bf5565b60405180910390fd5b6104416103b382611fe9565b60060180548060200260200160405190810160405280929190818152602001828054801561043657602002820191906000526020600020905b8160009054906101000a900473ffffffffffffffffffffffffffffffffffffffff1673ffffffffffffffffffffffffffffffffffffffff16815260200190600101908083116103ec575b505050505033612046565b15610481576040517f08c379a000000000000000000000000000000000000000000000000000000000815260040161047890612bb5565b60405180910390fd5b61048a81611fe9565b600601339080600181540180825580915050600190039060005260206000200160009091909190916101000a81548173ffffffffffffffffffffffffffffffffffffffff021916908373ffffffffffffffffffffffffffffffffffffffff1602179055506104f781611fe9565b600501600081548092919061050b9061305a565b919050555050565b60008311801561052857506002805490508311155b610567576040517f08c379a000000000000000000000000000000000000000000000000000000000815260040161055e90612b55565b60405180910390fd5b60008390506002604051806101200160405280600160028054905061058c9190612ec1565b81526020018581526020018481526020013373ffffffffffffffffffffffffffffffffffffffff1681526020016000803373ffffffffffffffffffffffffffffffffffffffff1673ffffffffffffffffffffffffffffffffffffffff168152602001908152602001600020805461060290613028565b80601f016020809104026020016040519081016040528092919081815260200182805461062e90613028565b801561067b5780601f106106505761010080835404028352916020019161067b565b820191906000526020600020905b81548152906001019060200180831161065e57829003601f168201915b5050505050815260200160008152602001600067ffffffffffffffff8111156106cd577f4e487b7100000000000000000000000000000000000000000000000000000000600052604160045260246000fd5b6040519080825280602002602001820160405280156106fb5781602001602082028036833780820191505090505b508152602001600067ffffffffffffffff811115610742577f4e487b7100000000000000000000000000000000000000000000000000000000600052604160045260246000fd5b6040519080825280602002602001820160405280156107705781602001602082028036833780820191505090505b5081526020018381525090806001815401808255809150506001900390600052602060002090600902016000909190919091506000820151816000015560208201518160010190805190602001906107c99291906120f4565b5060408201518160020190805190602001906107e69291906120f4565b5060608201518160030160006101000a81548173ffffffffffffffffffffffffffffffffffffffff021916908373ffffffffffffffffffffffffffffffffffffffff160217905550608082015181600401908051906020019061084a9291906120f4565b5060a0820151816005015560c082015181600601908051906020019061087192919061217a565b5060e082015181600701908051906020019061088e92919061217a565b50610100820151816008015550506003604051806040016040528060028054905081526020018581525090806001815401808255809150506001900390600052602060002090600202016000909190919091506000820151816000015560208201518160010190805190602001906109079291906120f4565b50505050505050565b60008073ffffffffffffffffffffffffffffffffffffffff166001836040516109399190612a4b565b908152602001604051809103902060009054906101000a900473ffffffffffffffffffffffffffffffffffffffff1673ffffffffffffffffffffffffffffffffffffffff16146109be576040517f08c379a00000000000000000000000000000000000000000000000000000000081526004016109b590612b95565b60405180910390fd5b6000339050826000808373ffffffffffffffffffffffffffffffffffffffff1673ffffffffffffffffffffffffffffffffffffffff1681526020019081526020016000209080519060200190610a159291906120f4565b5080600184604051610a279190612a4b565b908152602001604051809103902060006101000a81548173ffffffffffffffffffffffffffffffffffffffff021916908373ffffffffffffffffffffffffffffffffffffffff1602179055506001915050919050565b60606000600280549050905060008167ffffffffffffffff811115610acb577f4e487b7100000000000000000000000000000000000000000000000000000000600052604160045260246000fd5b604051908082528060200260200182016040528015610b0457816020015b610af1612204565b815260200190600190039081610ae95790505b5090506000805b838110156111a057858051906020012060028281548110610b55577f4e487b7100000000000000000000000000000000000000000000000000000000600052603260045260246000fd5b9060005260206000209060090201600101604051610b739190612a34565b6040518091039020141561118d5760405180610120016040528060028381548110610bc7577f4e487b7100000000000000000000000000000000000000000000000000000000600052603260045260246000fd5b906000526020600020906009020160000154815260200160028381548110610c18577f4e487b7100000000000000000000000000000000000000000000000000000000600052603260045260246000fd5b90600052602060002090600902016001018054610c3490613028565b80601f0160208091040260200160405190810160405280929190818152602001828054610c6090613028565b8015610cad5780601f10610c8257610100808354040283529160200191610cad565b820191906000526020600020905b815481529060010190602001808311610c9057829003601f168201915b5050505050815260200160028381548110610cf1577f4e487b7100000000000000000000000000000000000000000000000000000000600052603260045260246000fd5b90600052602060002090600902016002018054610d0d90613028565b80601f0160208091040260200160405190810160405280929190818152602001828054610d3990613028565b8015610d865780601f10610d5b57610100808354040283529160200191610d86565b820191906000526020600020905b815481529060010190602001808311610d6957829003601f168201915b5050505050815260200160028381548110610dca577f4e487b7100000000000000000000000000000000000000000000000000000000600052603260045260246000fd5b906000526020600020906009020160030160009054906101000a900473ffffffffffffffffffffffffffffffffffffffff1673ffffffffffffffffffffffffffffffffffffffff16815260200160028381548110610e51577f4e487b7100000000000000000000000000000000000000000000000000000000600052603260045260246000fd5b90600052602060002090600902016004018054610e6d90613028565b80601f0160208091040260200160405190810160405280929190818152602001828054610e9990613028565b8015610ee65780601f10610ebb57610100808354040283529160200191610ee6565b820191906000526020600020905b815481529060010190602001808311610ec957829003601f168201915b5050505050815260200160028381548110610f2a577f4e487b7100000000000000000000000000000000000000000000000000000000600052603260045260246000fd5b906000526020600020906009020160050154815260200160028381548110610f7b577f4e487b7100000000000000000000000000000000000000000000000000000000600052603260045260246000fd5b906000526020600020906009020160060180548060200260200160405190810160405280929190818152602001828054801561100c57602002820191906000526020600020905b8160009054906101000a900473ffffffffffffffffffffffffffffffffffffffff1673ffffffffffffffffffffffffffffffffffffffff1681526020019060010190808311610fc2575b5050505050815260200160028381548110611050577f4e487b7100000000000000000000000000000000000000000000000000000000600052603260045260246000fd5b90600052602060002090600902016007018054806020026020016040519081016040528092919081815260200182805480156110e157602002820191906000526020600020905b8160009054906101000a900473ffffffffffffffffffffffffffffffffffffffff1673ffffffffffffffffffffffffffffffffffffffff1681526020019060010190808311611097575b5050505050815260200160028381548110611125577f4e487b7100000000000000000000000000000000000000000000000000000000600052603260045260246000fd5b906000526020600020906009020160080154815250838381518110611173577f4e487b7100000000000000000000000000000000000000000000000000000000600052603260045260246000fd5b60200260200101819052508180611189906130a3565b9250505b8080611198906130a3565b915050610b0b565b50819350505050919050565b600060205280600052604060002060009150905080546111cb90613028565b80601f01602080910402602001604051908101604052809291908181526020018280546111f790613028565b80156112445780601f1061121957610100808354040283529160200191611244565b820191906000526020600020905b81548152906001019060200180831161122757829003601f168201915b505050505081565b6000808211801561126257506002805490508211155b6112a1576040517f08c379a000000000000000000000000000000000000000000000000000000000815260040161129890612b75565b60405180910390fd5b6112aa82611fe9565b600501549050919050565b600381815481106112c557600080fd5b90600052602060002090600202016000915090508060000154908060010180546112ee90613028565b80601f016020809104026020016040519081016040528092919081815260200182805461131a90613028565b80156113675780601f1061133c57610100808354040283529160200191611367565b820191906000526020600020905b81548152906001019060200180831161134a57829003601f168201915b5050505050905082565b60008060009050600260405180610120016040528060016002805490506113989190612ec1565b81526020018681526020018581526020013373ffffffffffffffffffffffffffffffffffffffff1681526020016000803373ffffffffffffffffffffffffffffffffffffffff1673ffffffffffffffffffffffffffffffffffffffff168152602001908152602001600020805461140e90613028565b80601f016020809104026020016040519081016040528092919081815260200182805461143a90613028565b80156114875780601f1061145c57610100808354040283529160200191611487565b820191906000526020600020905b81548152906001019060200180831161146a57829003601f168201915b5050505050815260200160008152602001600067ffffffffffffffff8111156114d9577f4e487b7100000000000000000000000000000000000000000000000000000000600052604160045260246000fd5b6040519080825280602002602001820160405280156115075781602001602082028036833780820191505090505b508152602001600067ffffffffffffffff81111561154e577f4e487b7100000000000000000000000000000000000000000000000000000000600052604160045260246000fd5b60405190808252806020026020018201604052801561157c5781602001602082028036833780820191505090505b5081526020018381525090806001815401808255809150506001900390600052602060002090600902016000909190919091506000820151816000015560208201518160010190805190602001906115d59291906120f4565b5060408201518160020190805190602001906115f29291906120f4565b5060608201518160030160006101000a81548173ffffffffffffffffffffffffffffffffffffffff021916908373ffffffffffffffffffffffffffffffffffffffff16021790555060808201518160040190805190602001906116569291906120f4565b5060a0820151816005015560c082015181600601908051906020019061167d92919061217a565b5060e082015181600701908051906020019061169a92919061217a565b50610100820151816008015550506003604051806040016040528060028054905081526020018681525090806001815401808255809150506001900390600052602060002090600202016000909190919091506000820151816000015560208201518160010190805190602001906117139291906120f4565b505050600191505092915050565b6002818154811061173157600080fd5b906000526020600020906009020160009150905080600001549080600101805461175a90613028565b80601f016020809104026020016040519081016040528092919081815260200182805461178690613028565b80156117d35780601f106117a8576101008083540402835291602001916117d3565b820191906000526020600020905b8154815290600101906020018083116117b657829003601f168201915b5050505050908060020180546117e890613028565b80601f016020809104026020016040519081016040528092919081815260200182805461181490613028565b80156118615780601f1061183657610100808354040283529160200191611861565b820191906000526020600020905b81548152906001019060200180831161184457829003601f168201915b5050505050908060030160009054906101000a900473ffffffffffffffffffffffffffffffffffffffff169080600401805461189c90613028565b80601f01602080910402602001604051908101604052809291908181526020018280546118c890613028565b80156119155780601f106118ea57610100808354040283529160200191611915565b820191906000526020600020905b8154815290600101906020018083116118f857829003601f168201915b5050505050908060050154908060080154905087565b60008111801561194057506002805490508111155b61197f576040517f08c379a000000000000000000000000000000000000000000000000000000000815260040161197690612b75565b60405180910390fd5b60008060003373ffffffffffffffffffffffffffffffffffffffff1673ffffffffffffffffffffffffffffffffffffffff16815260200190815260200160002080546119ca90613028565b905011611a0c576040517f08c379a0000000000000000000000000000000000000000000000000000000008152600401611a0390612bf5565b60405180910390fd5b611aa6611a1882611fe9565b600701805480602002602001604051908101604052809291908181526020018280548015611a9b57602002820191906000526020600020905b8160009054906101000a900473ffffffffffffffffffffffffffffffffffffffff1673ffffffffffffffffffffffffffffffffffffffff1681526020019060010190808311611a51575b505050505033612046565b15611ae6576040517f08c379a0000000000000000000000000000000000000000000000000000000008152600401611add90612b35565b60405180910390fd5b611aef81611fe9565b600701339080600181540180825580915050600190039060005260206000200160009091909190916101000a81548173ffffffffffffffffffffffffffffffffffffffff021916908373ffffffffffffffffffffffffffffffffffffffff160217905550611b5c81611fe9565b6005016000815480929190611b7090612fdf565b919050555050565b6001818051602081018201805184825260208301602085012081835280955050505050506000915054906101000a900473ffffffffffffffffffffffffffffffffffffffff1681565b6000806060600073ffffffffffffffffffffffffffffffffffffffff16600185604051611bee9190612a4b565b908152602001604051809103902060009054906101000a900473ffffffffffffffffffffffffffffffffffffffff1673ffffffffffffffffffffffffffffffffffffffff161415611c74576040517f08c379a0000000000000000000000000000000000000000000000000000000008152600401611c6b90612bd5565b60405180910390fd5b6000600185604051611c869190612a4b565b908152602001604051809103902060009054906101000a900473ffffffffffffffffffffffffffffffffffffffff16905060008060028054905067ffffffffffffffff811115611cff577f4e487b7100000000000000000000000000000000000000000000000000000000600052604160045260246000fd5b604051908082528060200260200182016040528015611d2d5781602001602082028036833780820191505090505b5090506000805b600280549050811015611ebb57888051906020012060028281548110611d83577f4e487b7100000000000000000000000000000000000000000000000000000000600052603260045260246000fd5b9060005260206000209060090201600401604051611da19190612a34565b60405180910390201415611ea85760028181548110611de9577f4e487b7100000000000000000000000000000000000000000000000000000000600052603260045260246000fd5b90600052602060002090600902016005015484611e069190612e2d565b935060028181548110611e42577f4e487b7100000000000000000000000000000000000000000000000000000000600052603260045260246000fd5b906000526020600020906009020160000154838381518110611e8d577f4e487b7100000000000000000000000000000000000000000000000000000000600052603260045260246000fd5b6020026020010181815250508180611ea4906130a3565b9250505b8080611eb3906130a3565b915050611d34565b5060008167ffffffffffffffff811115611efe577f4e487b7100000000000000000000000000000000000000000000000000000000600052604160045260246000fd5b604051908082528060200260200182016040528015611f2c5781602001602082028036833780820191505090505b50905060005b82811015611fd357838181518110611f73577f4e487b7100000000000000000000000000000000000000000000000000000000600052603260045260246000fd5b6020026020010151828281518110611fb4577f4e487b7100000000000000000000000000000000000000000000000000000000600052603260045260246000fd5b6020026020010181815250508080611fcb906130a3565b915050611f32565b5084848297509750975050505050509193909250565b60006002600183611ffa9190612f17565b81548110612031577f4e487b7100000000000000000000000000000000000000000000000000000000600052603260045260246000fd5b90600052602060002090600902019050919050565b600080600090505b83518110156120e8578273ffffffffffffffffffffffffffffffffffffffff168482815181106120a7577f4e487b7100000000000000000000000000000000000000000000000000000000600052603260045260246000fd5b602002602001015173ffffffffffffffffffffffffffffffffffffffff1614156120d55760019150506120ee565b80806120e0906130a3565b91505061204e565b50600090505b92915050565b82805461210090613028565b90600052602060002090601f0160209004810192826121225760008555612169565b82601f1061213b57805160ff1916838001178555612169565b82800160010185558215612169579182015b8281111561216857825182559160200191906001019061214d565b5b5090506121769190612266565b5090565b8280548282559060005260206000209081019282156121f3579160200282015b828111156121f25782518260006101000a81548173ffffffffffffffffffffffffffffffffffffffff021916908373ffffffffffffffffffffffffffffffffffffffff1602179055509160200191906001019061219a565b5b5090506122009190612266565b5090565b604051806101200160405280600081526020016060815260200160608152602001600073ffffffffffffffffffffffffffffffffffffffff16815260200160608152602001600081526020016060815260200160608152602001600081525090565b5b8082111561227f576000816000905550600101612267565b5090565b600061229661229184612cfa565b612cc9565b9050828152602081018484840111156122ae57600080fd5b6122b9848285612f9d565b509392505050565b6000813590506122d08161318a565b92915050565b600082601f8301126122e757600080fd5b81356122f7848260208601612283565b91505092915050565b60008135905061230f816131a1565b92915050565b60006020828403121561232757600080fd5b6000612335848285016122c1565b91505092915050565b60006020828403121561235057600080fd5b600082013567ffffffffffffffff81111561236a57600080fd5b612376848285016122d6565b91505092915050565b6000806040838503121561239257600080fd5b600083013567ffffffffffffffff8111156123ac57600080fd5b6123b8858286016122d6565b925050602083013567ffffffffffffffff8111156123d557600080fd5b6123e1858286016122d6565b9150509250929050565b6000602082840312156123fd57600080fd5b600061240b84828501612300565b91505092915050565b60008060006060848603121561242957600080fd5b600061243786828701612300565b935050602084013567ffffffffffffffff81111561245457600080fd5b612460868287016122d6565b925050604084013567ffffffffffffffff81111561247d57600080fd5b612489868287016122d6565b9150509250925092565b600061249f83836124d7565b60208301905092915050565b60006124b78383612935565b905092915050565b60006124cb8383612a16565b60208301905092915050565b6124e081612f4b565b82525050565b6124ef81612f4b565b82525050565b600061250082612d6f565b61250a8185612dc2565b935061251583612d2a565b8060005b8381101561254657815161252d8882612493565b975061253883612d9b565b925050600181019050612519565b5085935050505092915050565b600061255e82612d7a565b6125688185612dd3565b93508360208202850161257a85612d3a565b8060005b858110156125b6578484038952815161259785826124ab565b94506125a283612da8565b925060208a0199505060018101905061257e565b50829750879550505050505092915050565b60006125d382612d85565b6125dd8185612de4565b93506125e883612d4a565b8060005b8381101561261957815161260088826124bf565b975061260b83612db5565b9250506001810190506125ec565b5085935050505092915050565b61262f81612f5d565b82525050565b6000815461264281613028565b61264c8186612df5565b945060018216600081146126675760018114612678576126ab565b60ff198316865281860193506126ab565b61268185612d5a565b60005b838110156126a357815481890152600182019150602081019050612684565b838801955050505b50505092915050565b6126bd81612f69565b82525050565b6126cc81612f69565b82525050565b60006126dd82612d90565b6126e78185612e00565b93506126f7818560208601612fac565b61270081613179565b840191505092915050565b600061271682612d90565b6127208185612e11565b9350612730818560208601612fac565b61273981613179565b840191505092915050565b600061274f82612d90565b6127598185612e22565b9350612769818560208601612fac565b80840191505092915050565b6000612782601183612e11565b91507f416c726561647920646f776e766f7465640000000000000000000000000000006000830152602082019050919050565b60006127c2601983612e11565b91507f496e76616c696420706172656e7420636f6d6d656e74204944000000000000006000830152602082019050919050565b6000612802601283612e11565b91507f496e76616c696420636f6d6d656e7420494400000000000000000000000000006000830152602082019050919050565b6000612842601783612e11565b91507f557365726e616d6520616c7265616479206578697374730000000000000000006000830152602082019050919050565b6000612882600f83612e11565b91507f416c7265616479207570766f74656400000000000000000000000000000000006000830152602082019050919050565b60006128c2601383612e11565b91507f5573657220646f6573206e6f74206578697374000000000000000000000000006000830152602082019050919050565b6000612902601883612e11565b91507f436f6d6d656e74657220646f6573206e6f7420657869737400000000000000006000830152602082019050919050565b60006101208301600083015161294e6000860182612a16565b506020830151848203602086015261296682826126d2565b9150506040830151848203604086015261298082826126d2565b915050606083015161299560608601826124d7565b50608083015184820360808601526129ad82826126d2565b91505060a08301516129c260a08601826126b4565b5060c083015184820360c08601526129da82826124f5565b91505060e083015184820360e08601526129f482826124f5565b915050610100830151612a0b610100860182612a16565b508091505092915050565b612a1f81612f93565b82525050565b612a2e81612f93565b82525050565b6000612a408284612635565b915081905092915050565b6000612a578284612744565b915081905092915050565b6000602082019050612a7760008301846124e6565b92915050565b6000606082019050612a9260008301866124e6565b612a9f60208301856126c3565b8181036040830152612ab181846125c8565b9050949350505050565b60006020820190508181036000830152612ad58184612553565b905092915050565b6000602082019050612af26000830184612626565b92915050565b6000602082019050612b0d60008301846126c3565b92915050565b60006020820190508181036000830152612b2d818461270b565b905092915050565b60006020820190508181036000830152612b4e81612775565b9050919050565b60006020820190508181036000830152612b6e816127b5565b9050919050565b60006020820190508181036000830152612b8e816127f5565b9050919050565b60006020820190508181036000830152612bae81612835565b9050919050565b60006020820190508181036000830152612bce81612875565b9050919050565b60006020820190508181036000830152612bee816128b5565b9050919050565b60006020820190508181036000830152612c0e816128f5565b9050919050565b6000604082019050612c2a6000830185612a25565b8181036020830152612c3c818461270b565b90509392505050565b600060e082019050612c5a600083018a612a25565b8181036020830152612c6c818961270b565b90508181036040830152612c80818861270b565b9050612c8f60608301876124e6565b8181036080830152612ca1818661270b565b9050612cb060a08301856126c3565b612cbd60c0830184612a25565b98975050505050505050565b6000604051905081810181811067ffffffffffffffff82111715612cf057612cef61314a565b5b8060405250919050565b600067ffffffffffffffff821115612d1557612d1461314a565b5b601f19601f8301169050602081019050919050565b6000819050602082019050919050565b6000819050602082019050919050565b6000819050602082019050919050565b60008190508160005260206000209050919050565b600081519050919050565b600081519050919050565b600081519050919050565b600081519050919050565b6000602082019050919050565b6000602082019050919050565b6000602082019050919050565b600082825260208201905092915050565b600082825260208201905092915050565b600082825260208201905092915050565b600081905092915050565b600082825260208201905092915050565b600082825260208201905092915050565b600081905092915050565b6000612e3882612f69565b9150612e4383612f69565b9250817f7fffffffffffffffffffffffffffffffffffffffffffffffffffffffffffffff03831360008312151615612e7e57612e7d6130ec565b5b817f8000000000000000000000000000000000000000000000000000000000000000038312600083121615612eb657612eb56130ec565b5b828201905092915050565b6000612ecc82612f93565b9150612ed783612f93565b9250827fffffffffffffffffffffffffffffffffffffffffffffffffffffffffffffffff03821115612f0c57612f0b6130ec565b5b828201905092915050565b6000612f2282612f93565b9150612f2d83612f93565b925082821015612f4057612f3f6130ec565b5b828203905092915050565b6000612f5682612f73565b9050919050565b60008115159050919050565b6000819050919050565b600073ffffffffffffffffffffffffffffffffffffffff82169050919050565b6000819050919050565b82818337600083830152505050565b60005b83811015612fca578082015181840152602081019050612faf565b83811115612fd9576000848401525b50505050565b6000612fea82612f69565b91507f800000000000000000000000000000000000000000000000000000000000000082141561301d5761301c6130ec565b5b600182039050919050565b6000600282049050600182168061304057607f821691505b602082108114156130545761305361311b565b5b50919050565b600061306582612f69565b91507f7fffffffffffffffffffffffffffffffffffffffffffffffffffffffffffffff821415613098576130976130ec565b5b600182019050919050565b60006130ae82612f93565b91507fffffffffffffffffffffffffffffffffffffffffffffffffffffffffffffffff8214156130e1576130e06130ec565b5b600182019050919050565b7f4e487b7100000000000000000000000000000000000000000000000000000000600052601160045260246000fd5b7f4e487b7100000000000000000000000000000000000000000000000000000000600052602260045260246000fd5b7f4e487b7100000000000000000000000000000000000000000000000000000000600052604160045260246000fd5b6000601f19601f8301169050919050565b61319381612f4b565b811461319e57600080fd5b50565b6131aa81612f93565b81146131b557600080fd5b5056fea26469706673582212209fa50b26db56e435762231db185907d7c943e9d154eddc9d7d46e7a10852061364736f6c63430008000033",
  "immutableReferences": {},
  "source": "// SPDX-License-Identifier: UNLICENSED\npragma solidity ^0.8.0;\n\ncontract DeThread {\n    struct Comment {\n        uint256 id;\n        string url;\n        string comment;\n        address userAddress;\n        string username;\n        int votes;\n        address[] upvoters;\n        address[] downvoters;\n        uint256 parentId;\n    }\n\n    struct CommentMetadata {\n        uint256 id;\n        string url;\n    }\n\n    mapping(address => string) public userAccounts;\n    mapping(string => address) public usernameToAddress;\n    Comment[] public comments;\n    CommentMetadata[] public commentsMetadata;\n\n    function createAccount(string memory _username) public returns (bool) {\n        require(usernameToAddress[_username] == address(0), \"Username already exists\");\n        address _walletAddress = msg.sender;\n\n        userAccounts[_walletAddress] = _username;\n        usernameToAddress[_username] = _walletAddress;\n        return true;\n    }\n\n    function insertComment(string memory _url, string memory _comment) public returns (bool) {\n        uint256 parentId = 0;\n        comments.push(Comment(comments.length + 1, _url, _comment, msg.sender, userAccounts[msg.sender], 0, new address[](0), new address[](0), parentId));\n        commentsMetadata.push(CommentMetadata(comments.length, _url));\n        return true;\n    }\n\n    function addReply(uint256 _parentCommentId, string memory _url, string memory _comment) public {\n        require(_parentCommentId > 0 && _parentCommentId <= comments.length, \"Invalid parent comment ID\");\n\n        uint256 parentId = _parentCommentId;\n        comments.push(Comment(comments.length + 1, _url, _comment, msg.sender, userAccounts[msg.sender], 0, new address[](0), new address[](0), parentId));\n        commentsMetadata.push(CommentMetadata(comments.length, _url));\n    }\n\n    function readComments(string memory _url) public view returns (Comment[] memory) {\n        uint256 length = comments.length;\n\n        Comment[] memory result = new Comment[](length);\n        uint256 commentCount = 0;\n\n        for (uint256 i = 0; i < length; i++) {\n            if (keccak256(bytes(comments[i].url)) == keccak256(bytes(_url))) {\n                result[commentCount] = Comment({\n                    id: comments[i].id,\n                    url: comments[i].url,\n                    comment: comments[i].comment,\n                    userAddress: comments[i].userAddress,\n                    username: comments[i].username,\n                    votes: comments[i].votes,\n                    upvoters: comments[i].upvoters,\n                    downvoters: comments[i].downvoters,\n                    parentId: comments[i].parentId\n                });\n                commentCount++;\n            }\n        }\n\n        return result;\n    }\n\n\n    function upvote(uint256 _commentId) public {\n        require(_commentId > 0 && _commentId <= comments.length, \"Invalid comment ID\");\n        require(bytes(userAccounts[msg.sender]).length > 0, \"Commenter does not exist\");\n        require(!isUserInArray(getComment(_commentId).upvoters, msg.sender), \"Already upvoted\");\n\n        getComment(_commentId).upvoters.push(msg.sender);\n        getComment(_commentId).votes++;\n    }\n\n    function downvote(uint256 _commentId) public {\n        require(_commentId > 0 && _commentId <= comments.length, \"Invalid comment ID\");\n        require(bytes(userAccounts[msg.sender]).length > 0, \"Commenter does not exist\");\n        require(!isUserInArray(getComment(_commentId).downvoters, msg.sender), \"Already downvoted\");\n\n        getComment(_commentId).downvoters.push(msg.sender);\n        getComment(_commentId).votes--;\n    }\n\n    function getCommentVotes(uint256 _commentId) public view returns (int) {\n        require(_commentId > 0 && _commentId <= comments.length, \"Invalid comment ID\");\n        return getComment(_commentId).votes;\n    }\n\n    function getComment(uint256 _commentId) internal view returns (Comment storage) {\n        return comments[_commentId - 1];\n    }\n\n    function showUserInfo(string memory _username) public view returns (address, int, uint256[] memory) {\n        require(usernameToAddress[_username] != address(0), \"User does not exist\");\n\n        address userAddress = usernameToAddress[_username];\n        int userVotes = 0;\n        uint256[] memory userCommentIds = new uint256[](comments.length);\n        uint256 commentCount = 0;\n\n        for (uint256 i = 0; i < comments.length; i++) {\n            if (keccak256(bytes(comments[i].username)) == keccak256(bytes(_username))) {\n                userVotes += comments[i].votes;\n                userCommentIds[commentCount] = comments[i].id;\n                commentCount++;\n            }\n        }\n\n        // Trim the array to remove empty elements if any\n        uint256[] memory trimmedUserCommentIds = new uint256[](commentCount);\n        for (uint256 i = 0; i < commentCount; i++) {\n            trimmedUserCommentIds[i] = userCommentIds[i];\n        }\n\n        return (userAddress, userVotes, trimmedUserCommentIds);\n}\n\n    function isUserInArray(address[] memory _array, address _user) internal pure returns (bool) {\n        for (uint256 i = 0; i < _array.length; i++) {\n            if (_array[i] == _user) {\n                return true;\n            }\n        }\n        return false;\n    }\n}\n",
  "sourcePath": "D:\\xampp\\htdocs\\DeComment\\smart-contract\\contracts\\DeThread.sol",
  "compiler": {
    "name": "solc",
    "version": "0.8.0+commit.c7dfd78e.Emscripten.clang"
  },
  "schemaVersion": "3.4.9",
  "updatedAt": "2023-12-17T06:54:41.934Z",
  "networkType": "ethereum",
  "devdoc": {
    "kind": "dev",
    "methods": {},
    "version": 1
  },
  "userdoc": {
    "kind": "user",
    "methods": {},
    "version": 1
  }
}