{
  "_format": "hh-sol-artifact-1",
  "contractName": "Lock",
  "sourceName": "contracts/Lock.sol",
  "abi": [
    {
      "inputs": [
        {
          "internalType": "uint256",
          "name": "_parentCommentId",
          "type": "uint256"
        },
        {
          "internalType": "string",
          "name": "_url",
          "type": "string"
        },
        {
          "internalType": "string",
          "name": "_comment",
          "type": "string"
        }
      ],
      "name": "addReply",
      "outputs": [],
      "stateMutability": "nonpayable",
      "type": "function"
    },
    {
      "inputs": [
        {
          "internalType": "uint256",
          "name": "",
          "type": "uint256"
        }
      ],
      "name": "comments",
      "outputs": [
        {
          "internalType": "uint256",
          "name": "id",
          "type": "uint256"
        },
        {
          "internalType": "string",
          "name": "url",
          "type": "string"
        },
        {
          "internalType": "string",
          "name": "comment",
          "type": "string"
        },
        {
          "internalType": "address",
          "name": "userAddress",
          "type": "address"
        },
        {
          "internalType": "string",
          "name": "username",
          "type": "string"
        },
        {
          "internalType": "int256",
          "name": "votes",
          "type": "int256"
        },
        {
          "internalType": "uint256",
          "name": "parentId",
          "type": "uint256"
        }
      ],
      "stateMutability": "view",
      "type": "function"
    },
    {
      "inputs": [
        {
          "internalType": "uint256",
          "name": "",
          "type": "uint256"
        }
      ],
      "name": "commentsMetadata",
      "outputs": [
        {
          "internalType": "uint256",
          "name": "id",
          "type": "uint256"
        },
        {
          "internalType": "string",
          "name": "url",
          "type": "string"
        }
      ],
      "stateMutability": "view",
      "type": "function"
    },
    {
      "inputs": [
        {
          "internalType": "address",
          "name": "_walletAddress",
          "type": "address"
        },
        {
          "internalType": "string",
          "name": "_username",
          "type": "string"
        }
      ],
      "name": "createAccount",
      "outputs": [],
      "stateMutability": "nonpayable",
      "type": "function"
    },
    {
      "inputs": [
        {
          "internalType": "uint256",
          "name": "_commentId",
          "type": "uint256"
        }
      ],
      "name": "downvote",
      "outputs": [],
      "stateMutability": "nonpayable",
      "type": "function"
    },
    {
      "inputs": [
        {
          "internalType": "uint256",
          "name": "_commentId",
          "type": "uint256"
        }
      ],
      "name": "getCommentVotes",
      "outputs": [
        {
          "internalType": "int256",
          "name": "",
          "type": "int256"
        }
      ],
      "stateMutability": "view",
      "type": "function"
    },
    {
      "inputs": [
        {
          "internalType": "string",
          "name": "_url",
          "type": "string"
        },
        {
          "internalType": "string",
          "name": "_comment",
          "type": "string"
        }
      ],
      "name": "insertComment",
      "outputs": [],
      "stateMutability": "nonpayable",
      "type": "function"
    },
    {
      "inputs": [
        {
          "internalType": "string",
          "name": "_url",
          "type": "string"
        }
      ],
      "name": "readComments",
      "outputs": [
        {
          "components": [
            {
              "internalType": "uint256",
              "name": "id",
              "type": "uint256"
            },
            {
              "internalType": "string",
              "name": "url",
              "type": "string"
            },
            {
              "internalType": "string",
              "name": "comment",
              "type": "string"
            },
            {
              "internalType": "address",
              "name": "userAddress",
              "type": "address"
            },
            {
              "internalType": "string",
              "name": "username",
              "type": "string"
            },
            {
              "internalType": "int256",
              "name": "votes",
              "type": "int256"
            },
            {
              "internalType": "address[]",
              "name": "upvoters",
              "type": "address[]"
            },
            {
              "internalType": "address[]",
              "name": "downvoters",
              "type": "address[]"
            },
            {
              "internalType": "uint256",
              "name": "parentId",
              "type": "uint256"
            }
          ],
          "internalType": "struct Lock.Comment[]",
          "name": "",
          "type": "tuple[]"
        }
      ],
      "stateMutability": "view",
      "type": "function"
    },
    {
      "inputs": [],
      "name": "readUsers",
      "outputs": [
        {
          "internalType": "string[]",
          "name": "",
          "type": "string[]"
        },
        {
          "internalType": "address[]",
          "name": "",
          "type": "address[]"
        }
      ],
      "stateMutability": "view",
      "type": "function"
    },
    {
      "inputs": [
        {
          "internalType": "string",
          "name": "_username",
          "type": "string"
        }
      ],
      "name": "showUserInfo",
      "outputs": [
        {
          "internalType": "address",
          "name": "",
          "type": "address"
        },
        {
          "internalType": "int256",
          "name": "",
          "type": "int256"
        },
        {
          "internalType": "uint256[]",
          "name": "",
          "type": "uint256[]"
        }
      ],
      "stateMutability": "view",
      "type": "function"
    },
    {
      "inputs": [
        {
          "internalType": "uint256",
          "name": "_commentId",
          "type": "uint256"
        }
      ],
      "name": "upvote",
      "outputs": [],
      "stateMutability": "nonpayable",
      "type": "function"
    },
    {
      "inputs": [
        {
          "internalType": "address",
          "name": "",
          "type": "address"
        }
      ],
      "name": "userAccounts",
      "outputs": [
        {
          "internalType": "string",
          "name": "",
          "type": "string"
        }
      ],
      "stateMutability": "view",
      "type": "function"
    },
    {
      "inputs": [
        {
          "internalType": "string",
          "name": "",
          "type": "string"
        }
      ],
      "name": "usernameToAddress",
      "outputs": [
        {
          "internalType": "address",
          "name": "",
          "type": "address"
        }
      ],
      "stateMutability": "view",
      "type": "function"
    }
  ],
  "bytecode": "0x608060405234801561001057600080fd5b506133f9806100206000396000f3fe608060405234801561001057600080fd5b50600436106100cf5760003560e01c806366e281ba1161008c5780638ebb4c15116100665780638ebb4c1514610224578063f31fdad41461025a578063f825f14314610276578063fbde45f0146102a6576100cf565b806366e281ba146101a757806375119f28146101d75780638368fc2614610208576100cf565b806301ddf070146100d45780631831b7bc146100f05780632659f3941461010c57806334f0e63914610128578063469ce0d0146101475780635251d91c14610177575b600080fd5b6100ee60048036038101906100e9919061205a565b6102d8565b005b61010a600480360381019061010591906121cd565b610525565b005b610126600480360381019061012191906122b6565b6108ba565b005b610130610a14565b60405161013e929190612511565b60405180910390f35b610161600480360381019061015c9190612548565b610c4b565b60405161016e91906127cb565b60405180910390f35b610191600480360381019061018c91906127ed565b6111b1565b60405161019e9190612864565b60405180910390f35b6101c160048036038101906101bc919061205a565b611251565b6040516101ce9190612895565b60405180910390f35b6101f160048036038101906101ec919061205a565b6112ba565b6040516101ff9291906128bf565b60405180910390f35b610222600480360381019061021d91906128ef565b611376565b005b61023e6004803603810190610239919061205a565b6116b3565b6040516102519796959493929190612976565b60405180910390f35b610274600480360381019061026f919061205a565b6118bd565b005b610290600480360381019061028b9190612548565b611b0a565b60405161029d91906129fa565b60405180910390f35b6102c060048036038101906102bb9190612548565b611b53565b6040516102cf93929190612ac4565b60405180910390f35b6000811180156102ed57506002805490508111155b61032c576040517f08c379a000000000000000000000000000000000000000000000000000000000815260040161032390612b4e565b60405180910390fd5b60008060003373ffffffffffffffffffffffffffffffffffffffff1673ffffffffffffffffffffffffffffffffffffffff168152602001908152602001600020805461037790612b9d565b9050116103b9576040517f08c379a00000000000000000000000000000000000000000000000000000000081526004016103b090612c1a565b60405180910390fd5b6104536103c582611e49565b60060180548060200260200160405190810160405280929190818152602001828054801561044857602002820191906000526020600020905b8160009054906101000a900473ffffffffffffffffffffffffffffffffffffffff1673ffffffffffffffffffffffffffffffffffffffff16815260200190600101908083116103fe575b505050505033611e80565b15610493576040517f08c379a000000000000000000000000000000000000000000000000000000000815260040161048a90612c86565b60405180910390fd5b61049c81611e49565b600601339080600181540180825580915050600190039060005260206000200160009091909190916101000a81548173ffffffffffffffffffffffffffffffffffffffff021916908373ffffffffffffffffffffffffffffffffffffffff16021790555061050981611e49565b600501600081548092919061051d90612cd5565b919050555050565b60008311801561053a57506002805490508311155b610579576040517f08c379a000000000000000000000000000000000000000000000000000000000815260040161057090612d69565b60405180910390fd5b60008390506002604051806101200160405280600160028054905061059e9190612d89565b81526020018581526020018481526020013373ffffffffffffffffffffffffffffffffffffffff1681526020016000803373ffffffffffffffffffffffffffffffffffffffff1673ffffffffffffffffffffffffffffffffffffffff168152602001908152602001600020805461061490612b9d565b80601f016020809104026020016040519081016040528092919081815260200182805461064090612b9d565b801561068d5780601f106106625761010080835404028352916020019161068d565b820191906000526020600020905b81548152906001019060200180831161067057829003601f168201915b5050505050815260200160008152602001600067ffffffffffffffff8111156106b9576106b86120a2565b5b6040519080825280602002602001820160405280156106e75781602001602082028036833780820191505090505b508152602001600067ffffffffffffffff811115610708576107076120a2565b5b6040519080825280602002602001820160405280156107365781602001602082028036833780820191505090505b5081526020018381525090806001815401808255809150506001900390600052602060002090600902016000909190919091506000820151816000015560208201518160010190816107889190612f69565b50604082015181600201908161079e9190612f69565b5060608201518160030160006101000a81548173ffffffffffffffffffffffffffffffffffffffff021916908373ffffffffffffffffffffffffffffffffffffffff16021790555060808201518160040190816107fb9190612f69565b5060a0820151816005015560c0820151816006019080519060200190610822929190611f07565b5060e082015181600701908051906020019061083f929190611f07565b50610100820151816008015550506003604051806040016040528060028054905081526020018581525090806001815401808255809150506001900390600052602060002090600202016000909190919091506000820151816000015560208201518160010190816108b19190612f69565b50505050505050565b600073ffffffffffffffffffffffffffffffffffffffff166001826040516108e29190613077565b908152602001604051809103902060009054906101000a900473ffffffffffffffffffffffffffffffffffffffff1673ffffffffffffffffffffffffffffffffffffffff1614610967576040517f08c379a000000000000000000000000000000000000000000000000000000000815260040161095e906130da565b60405180910390fd5b806000808473ffffffffffffffffffffffffffffffffffffffff1673ffffffffffffffffffffffffffffffffffffffff16815260200190815260200160002090816109b29190612f69565b50816001826040516109c49190613077565b908152602001604051809103902060006101000a81548173ffffffffffffffffffffffffffffffffffffffff021916908373ffffffffffffffffffffffffffffffffffffffff1602179055505050565b6060806000600280549050905060008167ffffffffffffffff811115610a3d57610a3c6120a2565b5b604051908082528060200260200182016040528015610a7057816020015b6060815260200190600190039081610a5b5790505b50905060008267ffffffffffffffff811115610a8f57610a8e6120a2565b5b604051908082528060200260200182016040528015610abd5781602001602082028036833780820191505090505b50905060005b83811015610c3d5760028181548110610adf57610ade6130fa565b5b90600052602060002090600902016004018054610afb90612b9d565b80601f0160208091040260200160405190810160405280929190818152602001828054610b2790612b9d565b8015610b745780601f10610b4957610100808354040283529160200191610b74565b820191906000526020600020905b815481529060010190602001808311610b5757829003601f168201915b5050505050838281518110610b8c57610b8b6130fa565b5b602002602001018190525060028181548110610bab57610baa6130fa565b5b906000526020600020906009020160030160009054906101000a900473ffffffffffffffffffffffffffffffffffffffff16828281518110610bf057610bef6130fa565b5b602002602001019073ffffffffffffffffffffffffffffffffffffffff16908173ffffffffffffffffffffffffffffffffffffffff16815250508080610c3590613129565b915050610ac3565b508181945094505050509091565b60606000600280549050905060008167ffffffffffffffff811115610c7357610c726120a2565b5b604051908082528060200260200182016040528015610cac57816020015b610c99611f91565b815260200190600190039081610c915790505b5090506000805b838110156111a557858051906020012060028281548110610cd757610cd66130fa565b5b9060005260206000209060090201600101604051610cf59190613214565b6040518091039020036111925760405180610120016040528060028381548110610d2257610d216130fa565b5b906000526020600020906009020160000154815260200160028381548110610d4d57610d4c6130fa565b5b90600052602060002090600902016001018054610d6990612b9d565b80601f0160208091040260200160405190810160405280929190818152602001828054610d9590612b9d565b8015610de25780601f10610db757610100808354040283529160200191610de2565b820191906000526020600020905b815481529060010190602001808311610dc557829003601f168201915b5050505050815260200160028381548110610e0057610dff6130fa565b5b90600052602060002090600902016002018054610e1c90612b9d565b80601f0160208091040260200160405190810160405280929190818152602001828054610e4890612b9d565b8015610e955780601f10610e6a57610100808354040283529160200191610e95565b820191906000526020600020905b815481529060010190602001808311610e7857829003601f168201915b5050505050815260200160028381548110610eb357610eb26130fa565b5b906000526020600020906009020160030160009054906101000a900473ffffffffffffffffffffffffffffffffffffffff1673ffffffffffffffffffffffffffffffffffffffff16815260200160028381548110610f1457610f136130fa565b5b90600052602060002090600902016004018054610f3090612b9d565b80601f0160208091040260200160405190810160405280929190818152602001828054610f5c90612b9d565b8015610fa95780601f10610f7e57610100808354040283529160200191610fa9565b820191906000526020600020905b815481529060010190602001808311610f8c57829003601f168201915b5050505050815260200160028381548110610fc757610fc66130fa565b5b906000526020600020906009020160050154815260200160028381548110610ff257610ff16130fa565b5b906000526020600020906009020160060180548060200260200160405190810160405280929190818152602001828054801561108357602002820191906000526020600020905b8160009054906101000a900473ffffffffffffffffffffffffffffffffffffffff1673ffffffffffffffffffffffffffffffffffffffff1681526020019060010190808311611039575b50505050508152602001600283815481106110a1576110a06130fa565b5b906000526020600020906009020160070180548060200260200160405190810160405280929190818152602001828054801561113257602002820191906000526020600020905b8160009054906101000a900473ffffffffffffffffffffffffffffffffffffffff1673ffffffffffffffffffffffffffffffffffffffff16815260200190600101908083116110e8575b50505050508152602001600283815481106111505761114f6130fa565b5b906000526020600020906009020160080154815250838381518110611178576111776130fa565b5b6020026020010181905250818061118e90613129565b9250505b808061119d90613129565b915050610cb3565b50819350505050919050565b600060205280600052604060002060009150905080546111d090612b9d565b80601f01602080910402602001604051908101604052809291908181526020018280546111fc90612b9d565b80156112495780601f1061121e57610100808354040283529160200191611249565b820191906000526020600020905b81548152906001019060200180831161122c57829003601f168201915b505050505081565b6000808211801561126757506002805490508211155b6112a6576040517f08c379a000000000000000000000000000000000000000000000000000000000815260040161129d90612b4e565b60405180910390fd5b6112af82611e49565b600501549050919050565b600381815481106112ca57600080fd5b90600052602060002090600202016000915090508060000154908060010180546112f390612b9d565b80601f016020809104026020016040519081016040528092919081815260200182805461131f90612b9d565b801561136c5780601f106113415761010080835404028352916020019161136c565b820191906000526020600020905b81548152906001019060200180831161134f57829003601f168201915b5050505050905082565b6000600260405180610120016040528060016002805490506113989190612d89565b81526020018581526020018481526020013373ffffffffffffffffffffffffffffffffffffffff1681526020016000803373ffffffffffffffffffffffffffffffffffffffff1673ffffffffffffffffffffffffffffffffffffffff168152602001908152602001600020805461140e90612b9d565b80601f016020809104026020016040519081016040528092919081815260200182805461143a90612b9d565b80156114875780601f1061145c57610100808354040283529160200191611487565b820191906000526020600020905b81548152906001019060200180831161146a57829003601f168201915b5050505050815260200160008152602001600067ffffffffffffffff8111156114b3576114b26120a2565b5b6040519080825280602002602001820160405280156114e15781602001602082028036833780820191505090505b508152602001600067ffffffffffffffff811115611502576115016120a2565b5b6040519080825280602002602001820160405280156115305781602001602082028036833780820191505090505b5081526020018381525090806001815401808255809150506001900390600052602060002090600902016000909190919091506000820151816000015560208201518160010190816115829190612f69565b5060408201518160020190816115989190612f69565b5060608201518160030160006101000a81548173ffffffffffffffffffffffffffffffffffffffff021916908373ffffffffffffffffffffffffffffffffffffffff16021790555060808201518160040190816115f59190612f69565b5060a0820151816005015560c082015181600601908051906020019061161c929190611f07565b5060e0820151816007019080519060200190611639929190611f07565b50610100820151816008015550506003604051806040016040528060028054905081526020018581525090806001815401808255809150506001900390600052602060002090600202016000909190919091506000820151816000015560208201518160010190816116ab9190612f69565b505050505050565b600281815481106116c357600080fd5b90600052602060002090600902016000915090508060000154908060010180546116ec90612b9d565b80601f016020809104026020016040519081016040528092919081815260200182805461171890612b9d565b80156117655780601f1061173a57610100808354040283529160200191611765565b820191906000526020600020905b81548152906001019060200180831161174857829003601f168201915b50505050509080600201805461177a90612b9d565b80601f01602080910402602001604051908101604052809291908181526020018280546117a690612b9d565b80156117f35780601f106117c8576101008083540402835291602001916117f3565b820191906000526020600020905b8154815290600101906020018083116117d657829003601f168201915b5050505050908060030160009054906101000a900473ffffffffffffffffffffffffffffffffffffffff169080600401805461182e90612b9d565b80601f016020809104026020016040519081016040528092919081815260200182805461185a90612b9d565b80156118a75780601f1061187c576101008083540402835291602001916118a7565b820191906000526020600020905b81548152906001019060200180831161188a57829003601f168201915b5050505050908060050154908060080154905087565b6000811180156118d257506002805490508111155b611911576040517f08c379a000000000000000000000000000000000000000000000000000000000815260040161190890612b4e565b60405180910390fd5b60008060003373ffffffffffffffffffffffffffffffffffffffff1673ffffffffffffffffffffffffffffffffffffffff168152602001908152602001600020805461195c90612b9d565b90501161199e576040517f08c379a000000000000000000000000000000000000000000000000000000000815260040161199590612c1a565b60405180910390fd5b611a386119aa82611e49565b600701805480602002602001604051908101604052809291908181526020018280548015611a2d57602002820191906000526020600020905b8160009054906101000a900473ffffffffffffffffffffffffffffffffffffffff1673ffffffffffffffffffffffffffffffffffffffff16815260200190600101908083116119e3575b505050505033611e80565b15611a78576040517f08c379a0000000000000000000000000000000000000000000000000000000008152600401611a6f90613277565b60405180910390fd5b611a8181611e49565b600701339080600181540180825580915050600190039060005260206000200160009091909190916101000a81548173ffffffffffffffffffffffffffffffffffffffff021916908373ffffffffffffffffffffffffffffffffffffffff160217905550611aee81611e49565b6005016000815480929190611b0290613297565b919050555050565b6001818051602081018201805184825260208301602085012081835280955050505050506000915054906101000a900473ffffffffffffffffffffffffffffffffffffffff1681565b6000806060600073ffffffffffffffffffffffffffffffffffffffff16600185604051611b809190613077565b908152602001604051809103902060009054906101000a900473ffffffffffffffffffffffffffffffffffffffff1673ffffffffffffffffffffffffffffffffffffffff1603611c05576040517f08c379a0000000000000000000000000000000000000000000000000000000008152600401611bfc9061332b565b60405180910390fd5b6000600185604051611c179190613077565b908152602001604051809103902060009054906101000a900473ffffffffffffffffffffffffffffffffffffffff16905060008060028054905067ffffffffffffffff811115611c6a57611c696120a2565b5b604051908082528060200260200182016040528015611c985781602001602082028036833780820191505090505b5090506000805b600280549050811015611d8d57888051906020012060028281548110611cc857611cc76130fa565b5b9060005260206000209060090201600401604051611ce69190613214565b604051809103902003611d7a5760028181548110611d0757611d066130fa565b5b90600052602060002090600902016005015484611d24919061334b565b935060028181548110611d3a57611d396130fa565b5b906000526020600020906009020160000154838381518110611d5f57611d5e6130fa565b5b6020026020010181815250508180611d7690613129565b9250505b8080611d8590613129565b915050611c9f565b5060008167ffffffffffffffff811115611daa57611da96120a2565b5b604051908082528060200260200182016040528015611dd85781602001602082028036833780820191505090505b50905060005b82811015611e3357838181518110611df957611df86130fa565b5b6020026020010151828281518110611e1457611e136130fa565b5b6020026020010181815250508080611e2b90613129565b915050611dde565b5084848297509750975050505050509193909250565b60006002600183611e5a919061338f565b81548110611e6b57611e6a6130fa565b5b90600052602060002090600902019050919050565b600080600090505b8351811015611efb578273ffffffffffffffffffffffffffffffffffffffff16848281518110611ebb57611eba6130fa565b5b602002602001015173ffffffffffffffffffffffffffffffffffffffff1603611ee8576001915050611f01565b8080611ef390613129565b915050611e88565b50600090505b92915050565b828054828255906000526020600020908101928215611f80579160200282015b82811115611f7f5782518260006101000a81548173ffffffffffffffffffffffffffffffffffffffff021916908373ffffffffffffffffffffffffffffffffffffffff16021790555091602001919060010190611f27565b5b509050611f8d9190611ff3565b5090565b604051806101200160405280600081526020016060815260200160608152602001600073ffffffffffffffffffffffffffffffffffffffff16815260200160608152602001600081526020016060815260200160608152602001600081525090565b5b8082111561200c576000816000905550600101611ff4565b5090565b6000604051905090565b600080fd5b600080fd5b6000819050919050565b61203781612024565b811461204257600080fd5b50565b6000813590506120548161202e565b92915050565b6000602082840312156120705761206f61201a565b5b600061207e84828501612045565b91505092915050565b600080fd5b600080fd5b6000601f19601f8301169050919050565b7f4e487b7100000000000000000000000000000000000000000000000000000000600052604160045260246000fd5b6120da82612091565b810181811067ffffffffffffffff821117156120f9576120f86120a2565b5b80604052505050565b600061210c612010565b905061211882826120d1565b919050565b600067ffffffffffffffff821115612138576121376120a2565b5b61214182612091565b9050602081019050919050565b82818337600083830152505050565b600061217061216b8461211d565b612102565b90508281526020810184848401111561218c5761218b61208c565b5b61219784828561214e565b509392505050565b600082601f8301126121b4576121b3612087565b5b81356121c484826020860161215d565b91505092915050565b6000806000606084860312156121e6576121e561201a565b5b60006121f486828701612045565b935050602084013567ffffffffffffffff8111156122155761221461201f565b5b6122218682870161219f565b925050604084013567ffffffffffffffff8111156122425761224161201f565b5b61224e8682870161219f565b9150509250925092565b600073ffffffffffffffffffffffffffffffffffffffff82169050919050565b600061228382612258565b9050919050565b61229381612278565b811461229e57600080fd5b50565b6000813590506122b08161228a565b92915050565b600080604083850312156122cd576122cc61201a565b5b60006122db858286016122a1565b925050602083013567ffffffffffffffff8111156122fc576122fb61201f565b5b6123088582860161219f565b9150509250929050565b600081519050919050565b600082825260208201905092915050565b6000819050602082019050919050565b600081519050919050565b600082825260208201905092915050565b60005b8381101561237857808201518184015260208101905061235d565b60008484015250505050565b600061238f8261233e565b6123998185612349565b93506123a981856020860161235a565b6123b281612091565b840191505092915050565b60006123c98383612384565b905092915050565b6000602082019050919050565b60006123e982612312565b6123f3818561231d565b9350836020820285016124058561232e565b8060005b85811015612441578484038952815161242285826123bd565b945061242d836123d1565b925060208a01995050600181019050612409565b50829750879550505050505092915050565b600081519050919050565b600082825260208201905092915050565b6000819050602082019050919050565b61248881612278565b82525050565b600061249a838361247f565b60208301905092915050565b6000602082019050919050565b60006124be82612453565b6124c8818561245e565b93506124d38361246f565b8060005b838110156125045781516124eb888261248e565b97506124f6836124a6565b9250506001810190506124d7565b5085935050505092915050565b6000604082019050818103600083015261252b81856123de565b9050818103602083015261253f81846124b3565b90509392505050565b60006020828403121561255e5761255d61201a565b5b600082013567ffffffffffffffff81111561257c5761257b61201f565b5b6125888482850161219f565b91505092915050565b600081519050919050565b600082825260208201905092915050565b6000819050602082019050919050565b6125c681612024565b82525050565b6000819050919050565b6125df816125cc565b82525050565b600082825260208201905092915050565b600061260182612453565b61260b81856125e5565b93506126168361246f565b8060005b8381101561264757815161262e888261248e565b9750612639836124a6565b92505060018101905061261a565b5085935050505092915050565b60006101208301600083015161266d60008601826125bd565b50602083015184820360208601526126858282612384565b9150506040830151848203604086015261269f8282612384565b91505060608301516126b4606086018261247f565b50608083015184820360808601526126cc8282612384565b91505060a08301516126e160a08601826125d6565b5060c083015184820360c08601526126f982826125f6565b91505060e083015184820360e086015261271382826125f6565b91505061010083015161272a6101008601826125bd565b508091505092915050565b60006127418383612654565b905092915050565b6000602082019050919050565b600061276182612591565b61276b818561259c565b93508360208202850161277d856125ad565b8060005b858110156127b9578484038952815161279a8582612735565b94506127a583612749565b925060208a01995050600181019050612781565b50829750879550505050505092915050565b600060208201905081810360008301526127e58184612756565b905092915050565b6000602082840312156128035761280261201a565b5b6000612811848285016122a1565b91505092915050565b600082825260208201905092915050565b60006128368261233e565b612840818561281a565b935061285081856020860161235a565b61285981612091565b840191505092915050565b6000602082019050818103600083015261287e818461282b565b905092915050565b61288f816125cc565b82525050565b60006020820190506128aa6000830184612886565b92915050565b6128b981612024565b82525050565b60006040820190506128d460008301856128b0565b81810360208301526128e6818461282b565b90509392505050565b600080604083850312156129065761290561201a565b5b600083013567ffffffffffffffff8111156129245761292361201f565b5b6129308582860161219f565b925050602083013567ffffffffffffffff8111156129515761295061201f565b5b61295d8582860161219f565b9150509250929050565b61297081612278565b82525050565b600060e08201905061298b600083018a6128b0565b818103602083015261299d818961282b565b905081810360408301526129b1818861282b565b90506129c06060830187612967565b81810360808301526129d2818661282b565b90506129e160a0830185612886565b6129ee60c08301846128b0565b98975050505050505050565b6000602082019050612a0f6000830184612967565b92915050565b600081519050919050565b600082825260208201905092915050565b6000819050602082019050919050565b6000612a4d83836125bd565b60208301905092915050565b6000602082019050919050565b6000612a7182612a15565b612a7b8185612a20565b9350612a8683612a31565b8060005b83811015612ab7578151612a9e8882612a41565b9750612aa983612a59565b925050600181019050612a8a565b5085935050505092915050565b6000606082019050612ad96000830186612967565b612ae66020830185612886565b8181036040830152612af88184612a66565b9050949350505050565b7f496e76616c696420636f6d6d656e742049440000000000000000000000000000600082015250565b6000612b3860128361281a565b9150612b4382612b02565b602082019050919050565b60006020820190508181036000830152612b6781612b2b565b9050919050565b7f4e487b7100000000000000000000000000000000000000000000000000000000600052602260045260246000fd5b60006002820490506001821680612bb557607f821691505b602082108103612bc857612bc7612b6e565b5b50919050565b7f436f6d6d656e74657220646f6573206e6f742065786973740000000000000000600082015250565b6000612c0460188361281a565b9150612c0f82612bce565b602082019050919050565b60006020820190508181036000830152612c3381612bf7565b9050919050565b7f416c7265616479207570766f7465640000000000000000000000000000000000600082015250565b6000612c70600f8361281a565b9150612c7b82612c3a565b602082019050919050565b60006020820190508181036000830152612c9f81612c63565b9050919050565b7f4e487b7100000000000000000000000000000000000000000000000000000000600052601160045260246000fd5b6000612ce0826125cc565b91507f7fffffffffffffffffffffffffffffffffffffffffffffffffffffffffffffff8203612d1257612d11612ca6565b5b600182019050919050565b7f496e76616c696420706172656e7420636f6d6d656e7420494400000000000000600082015250565b6000612d5360198361281a565b9150612d5e82612d1d565b602082019050919050565b60006020820190508181036000830152612d8281612d46565b9050919050565b6000612d9482612024565b9150612d9f83612024565b9250828201905080821115612db757612db6612ca6565b5b92915050565b60008190508160005260206000209050919050565b60006020601f8301049050919050565b600082821b905092915050565b600060088302612e1f7fffffffffffffffffffffffffffffffffffffffffffffffffffffffffffffffff82612de2565b612e298683612de2565b95508019841693508086168417925050509392505050565b6000819050919050565b6000612e66612e61612e5c84612024565b612e41565b612024565b9050919050565b6000819050919050565b612e8083612e4b565b612e94612e8c82612e6d565b848454612def565b825550505050565b600090565b612ea9612e9c565b612eb4818484612e77565b505050565b5b81811015612ed857612ecd600082612ea1565b600181019050612eba565b5050565b601f821115612f1d57612eee81612dbd565b612ef784612dd2565b81016020851015612f06578190505b612f1a612f1285612dd2565b830182612eb9565b50505b505050565b600082821c905092915050565b6000612f4060001984600802612f22565b1980831691505092915050565b6000612f598383612f2f565b9150826002028217905092915050565b612f728261233e565b67ffffffffffffffff811115612f8b57612f8a6120a2565b5b612f958254612b9d565b612fa0828285612edc565b600060209050601f831160018114612fd35760008415612fc1578287015190505b612fcb8582612f4d565b865550613033565b601f198416612fe186612dbd565b60005b8281101561300957848901518255600182019150602085019450602081019050612fe4565b868310156130265784890151613022601f891682612f2f565b8355505b6001600288020188555050505b505050505050565b600081905092915050565b60006130518261233e565b61305b818561303b565b935061306b81856020860161235a565b80840191505092915050565b60006130838284613046565b915081905092915050565b7f557365726e616d6520616c726561647920657869737473000000000000000000600082015250565b60006130c460178361281a565b91506130cf8261308e565b602082019050919050565b600060208201905081810360008301526130f3816130b7565b9050919050565b7f4e487b7100000000000000000000000000000000000000000000000000000000600052603260045260246000fd5b600061313482612024565b91507fffffffffffffffffffffffffffffffffffffffffffffffffffffffffffffffff820361316657613165612ca6565b5b600182019050919050565b600081905092915050565b60008190508160005260206000209050919050565b6000815461319e81612b9d565b6131a88186613171565b945060018216600081146131c357600181146131d85761320b565b60ff198316865281151582028601935061320b565b6131e18561317c565b60005b83811015613203578154818901526001820191506020810190506131e4565b838801955050505b50505092915050565b60006132208284613191565b915081905092915050565b7f416c726561647920646f776e766f746564000000000000000000000000000000600082015250565b600061326160118361281a565b915061326c8261322b565b602082019050919050565b6000602082019050818103600083015261329081613254565b9050919050565b60006132a2826125cc565b91507f800000000000000000000000000000000000000000000000000000000000000082036132d4576132d3612ca6565b5b600182039050919050565b7f5573657220646f6573206e6f7420657869737400000000000000000000000000600082015250565b600061331560138361281a565b9150613320826132df565b602082019050919050565b6000602082019050818103600083015261334481613308565b9050919050565b6000613356826125cc565b9150613361836125cc565b92508282019050828112156000831216838212600084121516171561338957613388612ca6565b5b92915050565b600061339a82612024565b91506133a583612024565b92508282039050818111156133bd576133bc612ca6565b5b9291505056fea2646970667358221220c2ba9850aa0dd1001501b6d15c184f7795e9c82cdbeb885ba772ed842a77365964736f6c63430008130033",
  "linkReferences": {},
  "deployedLinkReferences": {}
}